{
  "_format": "hh-sol-artifact-1",
  "contractName": "BadgeToken",
  "sourceName": "contracts/BadgeToken.sol",
  "abi": [
    {
      "inputs": [
        {
          "internalType": "string",
          "name": "_name",
          "type": "string"
        },
        {
          "internalType": "string",
          "name": "_symbol",
          "type": "string"
        }
      ],
      "stateMutability": "nonpayable",
      "type": "constructor"
    },
    {
      "anonymous": false,
      "inputs": [
        {
          "indexed": true,
          "internalType": "address",
          "name": "owner",
          "type": "address"
        },
        {
          "indexed": true,
          "internalType": "address",
          "name": "approved",
          "type": "address"
        },
        {
          "indexed": true,
          "internalType": "uint256",
          "name": "tokenId",
          "type": "uint256"
        }
      ],
      "name": "Approval",
      "type": "event"
    },
    {
      "anonymous": false,
      "inputs": [
        {
          "indexed": true,
          "internalType": "address",
          "name": "owner",
          "type": "address"
        },
        {
          "indexed": true,
          "internalType": "address",
          "name": "operator",
          "type": "address"
        },
        {
          "indexed": false,
          "internalType": "bool",
          "name": "approved",
          "type": "bool"
        }
      ],
      "name": "ApprovalForAll",
      "type": "event"
    },
    {
      "anonymous": false,
      "inputs": [
        {
          "indexed": true,
          "internalType": "address",
          "name": "from",
          "type": "address"
        },
        {
          "indexed": true,
          "internalType": "address",
          "name": "to",
          "type": "address"
        },
        {
          "indexed": true,
          "internalType": "uint256",
          "name": "tokenId",
          "type": "uint256"
        }
      ],
      "name": "Transfer",
      "type": "event"
    },
    {
      "inputs": [
        {
          "internalType": "address",
          "name": "to",
          "type": "address"
        },
        {
          "internalType": "uint256",
          "name": "tokenId",
          "type": "uint256"
        }
      ],
      "name": "approve",
      "outputs": [],
      "stateMutability": "nonpayable",
      "type": "function"
    },
    {
      "inputs": [
        {
          "internalType": "address",
          "name": "owner",
          "type": "address"
        }
      ],
      "name": "balanceOf",
      "outputs": [
        {
          "internalType": "uint256",
          "name": "",
          "type": "uint256"
        }
      ],
      "stateMutability": "view",
      "type": "function"
    },
    {
      "inputs": [
        {
          "internalType": "uint256",
          "name": "tokenId",
          "type": "uint256"
        }
      ],
      "name": "getApproved",
      "outputs": [
        {
          "internalType": "address",
          "name": "",
          "type": "address"
        }
      ],
      "stateMutability": "view",
      "type": "function"
    },
    {
      "inputs": [
        {
          "internalType": "address",
          "name": "owner",
          "type": "address"
        },
        {
          "internalType": "address",
          "name": "operator",
          "type": "address"
        }
      ],
      "name": "isApprovedForAll",
      "outputs": [
        {
          "internalType": "bool",
          "name": "",
          "type": "bool"
        }
      ],
      "stateMutability": "view",
      "type": "function"
    },
    {
      "inputs": [
        {
          "internalType": "address",
          "name": "_to",
          "type": "address"
        }
      ],
      "name": "mintTo",
      "outputs": [],
      "stateMutability": "nonpayable",
      "type": "function"
    },
    {
      "inputs": [],
      "name": "name",
      "outputs": [
        {
          "internalType": "string",
          "name": "",
          "type": "string"
        }
      ],
      "stateMutability": "view",
      "type": "function"
    },
    {
      "inputs": [
        {
          "internalType": "uint256",
          "name": "tokenId",
          "type": "uint256"
        }
      ],
      "name": "ownerOf",
      "outputs": [
        {
          "internalType": "address",
          "name": "",
          "type": "address"
        }
      ],
      "stateMutability": "view",
      "type": "function"
    },
    {
      "inputs": [
        {
          "internalType": "address",
          "name": "from",
          "type": "address"
        },
        {
          "internalType": "address",
          "name": "to",
          "type": "address"
        },
        {
          "internalType": "uint256",
          "name": "tokenId",
          "type": "uint256"
        }
      ],
      "name": "safeTransferFrom",
      "outputs": [],
      "stateMutability": "nonpayable",
      "type": "function"
    },
    {
      "inputs": [
        {
          "internalType": "address",
          "name": "from",
          "type": "address"
        },
        {
          "internalType": "address",
          "name": "to",
          "type": "address"
        },
        {
          "internalType": "uint256",
          "name": "tokenId",
          "type": "uint256"
        },
        {
          "internalType": "bytes",
          "name": "data",
          "type": "bytes"
        }
      ],
      "name": "safeTransferFrom",
      "outputs": [],
      "stateMutability": "nonpayable",
      "type": "function"
    },
    {
      "inputs": [
        {
          "internalType": "address",
          "name": "operator",
          "type": "address"
        },
        {
          "internalType": "bool",
          "name": "approved",
          "type": "bool"
        }
      ],
      "name": "setApprovalForAll",
      "outputs": [],
      "stateMutability": "nonpayable",
      "type": "function"
    },
    {
      "inputs": [
        {
          "internalType": "bytes4",
          "name": "interfaceId",
          "type": "bytes4"
        }
      ],
      "name": "supportsInterface",
      "outputs": [
        {
          "internalType": "bool",
          "name": "",
          "type": "bool"
        }
      ],
      "stateMutability": "view",
      "type": "function"
    },
    {
      "inputs": [],
      "name": "symbol",
      "outputs": [
        {
          "internalType": "string",
          "name": "",
          "type": "string"
        }
      ],
      "stateMutability": "view",
      "type": "function"
    },
    {
      "inputs": [
        {
          "internalType": "uint256",
          "name": "tokenId",
          "type": "uint256"
        }
      ],
      "name": "tokenURI",
      "outputs": [
        {
          "internalType": "string",
          "name": "",
          "type": "string"
        }
      ],
      "stateMutability": "pure",
      "type": "function"
    },
    {
      "inputs": [
        {
          "internalType": "address",
          "name": "from",
          "type": "address"
        },
        {
          "internalType": "address",
          "name": "to",
          "type": "address"
        },
        {
          "internalType": "uint256",
          "name": "tokenId",
          "type": "uint256"
        }
      ],
      "name": "transferFrom",
      "outputs": [],
      "stateMutability": "nonpayable",
      "type": "function"
    }
  ],
  "bytecode": "0x608060405260006006553480156200001657600080fd5b5060405162002ef438038062002ef483398181016040528101906200003c9190620001ff565b818181600090816200004f9190620004cf565b508060019081620000619190620004cf565b5050505050620005b6565b6000604051905090565b600080fd5b600080fd5b600080fd5b600080fd5b6000601f19601f8301169050919050565b7f4e487b7100000000000000000000000000000000000000000000000000000000600052604160045260246000fd5b620000d5826200008a565b810181811067ffffffffffffffff82111715620000f757620000f66200009b565b5b80604052505050565b60006200010c6200006c565b90506200011a8282620000ca565b919050565b600067ffffffffffffffff8211156200013d576200013c6200009b565b5b62000148826200008a565b9050602081019050919050565b60005b838110156200017557808201518184015260208101905062000158565b60008484015250505050565b60006200019862000192846200011f565b62000100565b905082815260208101848484011115620001b757620001b662000085565b5b620001c484828562000155565b509392505050565b600082601f830112620001e457620001e362000080565b5b8151620001f684826020860162000181565b91505092915050565b6000806040838503121562000219576200021862000076565b5b600083015167ffffffffffffffff8111156200023a57620002396200007b565b5b6200024885828601620001cc565b925050602083015167ffffffffffffffff8111156200026c576200026b6200007b565b5b6200027a85828601620001cc565b9150509250929050565b600081519050919050565b7f4e487b7100000000000000000000000000000000000000000000000000000000600052602260045260246000fd5b60006002820490506001821680620002d757607f821691505b602082108103620002ed57620002ec6200028f565b5b50919050565b60008190508160005260206000209050919050565b60006020601f8301049050919050565b600082821b905092915050565b600060088302620003577fffffffffffffffffffffffffffffffffffffffffffffffffffffffffffffffff8262000318565b62000363868362000318565b95508019841693508086168417925050509392505050565b6000819050919050565b6000819050919050565b6000620003b0620003aa620003a4846200037b565b62000385565b6200037b565b9050919050565b6000819050919050565b620003cc836200038f565b620003e4620003db82620003b7565b84845462000325565b825550505050565b600090565b620003fb620003ec565b62000408818484620003c1565b505050565b5b81811015620004305762000424600082620003f1565b6001810190506200040e565b5050565b601f8211156200047f576200044981620002f3565b620004548462000308565b8101602085101562000464578190505b6200047c620004738562000308565b8301826200040d565b50505b505050565b600082821c905092915050565b6000620004a46000198460080262000484565b1980831691505092915050565b6000620004bf838362000491565b9150826002028217905092915050565b620004da8262000284565b67ffffffffffffffff811115620004f657620004f56200009b565b5b620005028254620002be565b6200050f82828562000434565b600060209050601f83116001811462000547576000841562000532578287015190505b6200053e8582620004b1565b865550620005ae565b601f1984166200055786620002f3565b60005b8281101562000581578489015182556001820191506020850194506020810190506200055a565b86831015620005a157848901516200059d601f89168262000491565b8355505b6001600288020188555050505b505050505050565b61292e80620005c66000396000f3fe608060405234801561001057600080fd5b50600436106100ea5760003560e01c806370a082311161008c578063a22cb46511610066578063a22cb4651461025b578063b88d4fde14610277578063c87b56dd14610293578063e985e9c5146102c3576100ea565b806370a08231146101f1578063755edd171461022157806395d89b411461023d576100ea565b8063095ea7b3116100c8578063095ea7b31461016d57806323b872dd1461018957806342842e0e146101a55780636352211e146101c1576100ea565b806301ffc9a7146100ef57806306fdde031461011f578063081812fc1461013d575b600080fd5b6101096004803603810190610104919061175b565b6102f3565b60405161011691906117a3565b60405180910390f35b6101276103d5565b604051610134919061184e565b60405180910390f35b610157600480360381019061015291906118a6565b610467565b6040516101649190611914565b60405180910390f35b6101876004803603810190610182919061195b565b6104ad565b005b6101a3600480360381019061019e919061199b565b6105c4565b005b6101bf60048036038101906101ba919061199b565b610624565b005b6101db60048036038101906101d691906118a6565b610644565b6040516101e89190611914565b60405180910390f35b61020b600480360381019061020691906119ee565b6106f5565b6040516102189190611a2a565b60405180910390f35b61023b600480360381019061023691906119ee565b6107ac565b005b6102456107ce565b604051610252919061184e565b60405180910390f35b61027560048036038101906102709190611a71565b610860565b005b610291600480360381019061028c9190611be6565b610876565b005b6102ad60048036038101906102a891906118a6565b6108d8565b6040516102ba919061184e565b60405180910390f35b6102dd60048036038101906102d89190611c69565b610936565b6040516102ea91906117a3565b60405180910390f35b60007f80ac58cd000000000000000000000000000000000000000000000000000000007bffffffffffffffffffffffffffffffffffffffffffffffffffffffff1916827bffffffffffffffffffffffffffffffffffffffffffffffffffffffff191614806103be57507f5b5e139f000000000000000000000000000000000000000000000000000000007bffffffffffffffffffffffffffffffffffffffffffffffffffffffff1916827bffffffffffffffffffffffffffffffffffffffffffffffffffffffff1916145b806103ce57506103cd826109ca565b5b9050919050565b6060600080546103e490611cd8565b80601f016020809104026020016040519081016040528092919081815260200182805461041090611cd8565b801561045d5780601f106104325761010080835404028352916020019161045d565b820191906000526020600020905b81548152906001019060200180831161044057829003601f168201915b5050505050905090565b600061047282610a34565b6004600083815260200190815260200160002060009054906101000a900473ffffffffffffffffffffffffffffffffffffffff169050919050565b60006104b882610644565b90508073ffffffffffffffffffffffffffffffffffffffff168373ffffffffffffffffffffffffffffffffffffffff1603610528576040517f08c379a000000000000000000000000000000000000000000000000000000000815260040161051f90611d7b565b60405180910390fd5b8073ffffffffffffffffffffffffffffffffffffffff16610547610a7f565b73ffffffffffffffffffffffffffffffffffffffff161480610576575061057581610570610a7f565b610936565b5b6105b5576040517f08c379a00000000000000000000000000000000000000000000000000000000081526004016105ac90611e0d565b60405180910390fd5b6105bf8383610a87565b505050565b6105d56105cf610a7f565b82610b40565b610614576040517f08c379a000000000000000000000000000000000000000000000000000000000815260040161060b90611e9f565b60405180910390fd5b61061f838383610bd5565b505050565b61063f83838360405180602001604052806000815250610876565b505050565b6000806002600084815260200190815260200160002060009054906101000a900473ffffffffffffffffffffffffffffffffffffffff169050600073ffffffffffffffffffffffffffffffffffffffff168173ffffffffffffffffffffffffffffffffffffffff16036106ec576040517f08c379a00000000000000000000000000000000000000000000000000000000081526004016106e390611f0b565b60405180910390fd5b80915050919050565b60008073ffffffffffffffffffffffffffffffffffffffff168273ffffffffffffffffffffffffffffffffffffffff1603610765576040517f08c379a000000000000000000000000000000000000000000000000000000000815260040161075c90611f9d565b60405180910390fd5b600360008373ffffffffffffffffffffffffffffffffffffffff1673ffffffffffffffffffffffffffffffffffffffff168152602001908152602001600020549050919050565b60006107b6610e3b565b90506107c28282610e51565b6107ca61102a565b5050565b6060600180546107dd90611cd8565b80601f016020809104026020016040519081016040528092919081815260200182805461080990611cd8565b80156108565780601f1061082b57610100808354040283529160200191610856565b820191906000526020600020905b81548152906001019060200180831161083957829003601f168201915b5050505050905090565b61087261086b610a7f565b8383611044565b5050565b610887610881610a7f565b83610b40565b6108c6576040517f08c379a00000000000000000000000000000000000000000000000000000000081526004016108bd90611e9f565b60405180910390fd5b6108d2848484846111b0565b50505050565b6060600061090c6108e88461120c565b6040516020016108f89190612233565b60405160208183030381529060405261136c565b90508060405160200161091f91906122d8565b604051602081830303815290604052915050919050565b6000600560008473ffffffffffffffffffffffffffffffffffffffff1673ffffffffffffffffffffffffffffffffffffffff16815260200190815260200160002060008373ffffffffffffffffffffffffffffffffffffffff1673ffffffffffffffffffffffffffffffffffffffff16815260200190815260200160002060009054906101000a900460ff16905092915050565b60007f01ffc9a7000000000000000000000000000000000000000000000000000000007bffffffffffffffffffffffffffffffffffffffffffffffffffffffff1916827bffffffffffffffffffffffffffffffffffffffffffffffffffffffff1916149050919050565b610a3d816114cf565b610a7c576040517f08c379a0000000000000000000000000000000000000000000000000000000008152600401610a7390611f0b565b60405180910390fd5b50565b600033905090565b816004600083815260200190815260200160002060006101000a81548173ffffffffffffffffffffffffffffffffffffffff021916908373ffffffffffffffffffffffffffffffffffffffff160217905550808273ffffffffffffffffffffffffffffffffffffffff16610afa83610644565b73ffffffffffffffffffffffffffffffffffffffff167f8c5be1e5ebec7d5bd14f71427d1e84f3dd0314c0f7b2291e5b200ac8c7c3b92560405160405180910390a45050565b600080610b4c83610644565b90508073ffffffffffffffffffffffffffffffffffffffff168473ffffffffffffffffffffffffffffffffffffffff161480610b8e5750610b8d8185610936565b5b80610bcc57508373ffffffffffffffffffffffffffffffffffffffff16610bb484610467565b73ffffffffffffffffffffffffffffffffffffffff16145b91505092915050565b8273ffffffffffffffffffffffffffffffffffffffff16610bf582610644565b73ffffffffffffffffffffffffffffffffffffffff1614610c4b576040517f08c379a0000000000000000000000000000000000000000000000000000000008152600401610c429061236c565b60405180910390fd5b600073ffffffffffffffffffffffffffffffffffffffff168273ffffffffffffffffffffffffffffffffffffffff1603610cba576040517f08c379a0000000000000000000000000000000000000000000000000000000008152600401610cb1906123fe565b60405180910390fd5b610cc583838361153b565b610cd0600082610a87565b6001600360008573ffffffffffffffffffffffffffffffffffffffff1673ffffffffffffffffffffffffffffffffffffffff1681526020019081526020016000206000828254610d20919061244d565b925050819055506001600360008473ffffffffffffffffffffffffffffffffffffffff1673ffffffffffffffffffffffffffffffffffffffff1681526020019081526020016000206000828254610d779190612481565b92505081905550816002600083815260200190815260200160002060006101000a81548173ffffffffffffffffffffffffffffffffffffffff021916908373ffffffffffffffffffffffffffffffffffffffff160217905550808273ffffffffffffffffffffffffffffffffffffffff168473ffffffffffffffffffffffffffffffffffffffff167fddf252ad1be2c89b69c2b068fc378daa952ba7f163c4a11628f55a4df523b3ef60405160405180910390a4610e36838383611540565b505050565b60006001600654610e4c9190612481565b905090565b600073ffffffffffffffffffffffffffffffffffffffff168273ffffffffffffffffffffffffffffffffffffffff1603610ec0576040517f08c379a0000000000000000000000000000000000000000000000000000000008152600401610eb790612501565b60405180910390fd5b610ec9816114cf565b15610f09576040517f08c379a0000000000000000000000000000000000000000000000000000000008152600401610f009061256d565b60405180910390fd5b610f156000838361153b565b6001600360008473ffffffffffffffffffffffffffffffffffffffff1673ffffffffffffffffffffffffffffffffffffffff1681526020019081526020016000206000828254610f659190612481565b92505081905550816002600083815260200190815260200160002060006101000a81548173ffffffffffffffffffffffffffffffffffffffff021916908373ffffffffffffffffffffffffffffffffffffffff160217905550808273ffffffffffffffffffffffffffffffffffffffff16600073ffffffffffffffffffffffffffffffffffffffff167fddf252ad1be2c89b69c2b068fc378daa952ba7f163c4a11628f55a4df523b3ef60405160405180910390a461102660008383611540565b5050565b6006600081548092919061103d9061258d565b9190505550565b8173ffffffffffffffffffffffffffffffffffffffff168373ffffffffffffffffffffffffffffffffffffffff16036110b2576040517f08c379a00000000000000000000000000000000000000000000000000000000081526004016110a990612621565b60405180910390fd5b80600560008573ffffffffffffffffffffffffffffffffffffffff1673ffffffffffffffffffffffffffffffffffffffff16815260200190815260200160002060008473ffffffffffffffffffffffffffffffffffffffff1673ffffffffffffffffffffffffffffffffffffffff16815260200190815260200160002060006101000a81548160ff0219169083151502179055508173ffffffffffffffffffffffffffffffffffffffff168373ffffffffffffffffffffffffffffffffffffffff167f17307eab39ab6107e8899845ad3d59bd9653f200f220920489ca2b5937696c31836040516111a391906117a3565b60405180910390a3505050565b6111bb848484610bd5565b6111c784848484611545565b611206576040517f08c379a00000000000000000000000000000000000000000000000000000000081526004016111fd906126b3565b60405180910390fd5b50505050565b606060008203611253576040518060400160405280600181526020017f30000000000000000000000000000000000000000000000000000000000000008152509050611367565b600082905060005b6000821461128557808061126e9061258d565b915050600a8261127e9190612702565b915061125b565b60008167ffffffffffffffff8111156112a1576112a0611abb565b5b6040519080825280601f01601f1916602001820160405280156112d35781602001600182028036833780820191505090505b5090505b60008514611360576001826112ec919061244d565b9150600a856112fb9190612733565b60306113079190612481565b60f81b81838151811061131d5761131c612764565b5b60200101907effffffffffffffffffffffffffffffffffffffffffffffffffffffffffffff1916908160001a905350600a856113599190612702565b94506112d7565b8093505050505b919050565b6060600082510361138e576040518060200160405280600081525090506114ca565b60006040518060600160405280604081526020016128b960409139905060006003600285516113bd9190612481565b6113c79190612702565b60046113d39190612793565b67ffffffffffffffff8111156113ec576113eb611abb565b5b6040519080825280601f01601f19166020018201604052801561141e5781602001600182028036833780820191505090505b509050600182016020820185865187015b8082101561148a576003820191508151603f8160121c168501518453600184019350603f81600c1c168501518453600184019350603f8160061c168501518453600184019350603f811685015184536001840193505061142f565b50506003865106600181146114a657600281146114b9576114c1565b603d6001830353603d60028303536114c1565b603d60018303535b50505080925050505b919050565b60008073ffffffffffffffffffffffffffffffffffffffff166002600084815260200190815260200160002060009054906101000a900473ffffffffffffffffffffffffffffffffffffffff1673ffffffffffffffffffffffffffffffffffffffff1614159050919050565b505050565b505050565b60006115668473ffffffffffffffffffffffffffffffffffffffff166116cc565b156116bf578373ffffffffffffffffffffffffffffffffffffffff1663150b7a0261158f610a7f565b8786866040518563ffffffff1660e01b81526004016115b1949392919061282a565b6020604051808303816000875af19250505080156115ed57506040513d601f19601f820116820180604052508101906115ea919061288b565b60015b61166f573d806000811461161d576040519150601f19603f3d011682016040523d82523d6000602084013e611622565b606091505b506000815103611667576040517f08c379a000000000000000000000000000000000000000000000000000000000815260040161165e906126b3565b60405180910390fd5b805181602001fd5b63150b7a0260e01b7bffffffffffffffffffffffffffffffffffffffffffffffffffffffff1916817bffffffffffffffffffffffffffffffffffffffffffffffffffffffff1916149150506116c4565b600190505b949350505050565b6000808273ffffffffffffffffffffffffffffffffffffffff163b119050919050565b6000604051905090565b600080fd5b600080fd5b60007fffffffff0000000000000000000000000000000000000000000000000000000082169050919050565b61173881611703565b811461174357600080fd5b50565b6000813590506117558161172f565b92915050565b600060208284031215611771576117706116f9565b5b600061177f84828501611746565b91505092915050565b60008115159050919050565b61179d81611788565b82525050565b60006020820190506117b86000830184611794565b92915050565b600081519050919050565b600082825260208201905092915050565b60005b838110156117f85780820151818401526020810190506117dd565b60008484015250505050565b6000601f19601f8301169050919050565b6000611820826117be565b61182a81856117c9565b935061183a8185602086016117da565b61184381611804565b840191505092915050565b600060208201905081810360008301526118688184611815565b905092915050565b6000819050919050565b61188381611870565b811461188e57600080fd5b50565b6000813590506118a08161187a565b92915050565b6000602082840312156118bc576118bb6116f9565b5b60006118ca84828501611891565b91505092915050565b600073ffffffffffffffffffffffffffffffffffffffff82169050919050565b60006118fe826118d3565b9050919050565b61190e816118f3565b82525050565b60006020820190506119296000830184611905565b92915050565b611938816118f3565b811461194357600080fd5b50565b6000813590506119558161192f565b92915050565b60008060408385031215611972576119716116f9565b5b600061198085828601611946565b925050602061199185828601611891565b9150509250929050565b6000806000606084860312156119b4576119b36116f9565b5b60006119c286828701611946565b93505060206119d386828701611946565b92505060406119e486828701611891565b9150509250925092565b600060208284031215611a0457611a036116f9565b5b6000611a1284828501611946565b91505092915050565b611a2481611870565b82525050565b6000602082019050611a3f6000830184611a1b565b92915050565b611a4e81611788565b8114611a5957600080fd5b50565b600081359050611a6b81611a45565b92915050565b60008060408385031215611a8857611a876116f9565b5b6000611a9685828601611946565b9250506020611aa785828601611a5c565b9150509250929050565b600080fd5b600080fd5b7f4e487b7100000000000000000000000000000000000000000000000000000000600052604160045260246000fd5b611af382611804565b810181811067ffffffffffffffff82111715611b1257611b11611abb565b5b80604052505050565b6000611b256116ef565b9050611b318282611aea565b919050565b600067ffffffffffffffff821115611b5157611b50611abb565b5b611b5a82611804565b9050602081019050919050565b82818337600083830152505050565b6000611b89611b8484611b36565b611b1b565b905082815260208101848484011115611ba557611ba4611ab6565b5b611bb0848285611b67565b509392505050565b600082601f830112611bcd57611bcc611ab1565b5b8135611bdd848260208601611b76565b91505092915050565b60008060008060808587031215611c0057611bff6116f9565b5b6000611c0e87828801611946565b9450506020611c1f87828801611946565b9350506040611c3087828801611891565b925050606085013567ffffffffffffffff811115611c5157611c506116fe565b5b611c5d87828801611bb8565b91505092959194509250565b60008060408385031215611c8057611c7f6116f9565b5b6000611c8e85828601611946565b9250506020611c9f85828601611946565b9150509250929050565b7f4e487b7100000000000000000000000000000000000000000000000000000000600052602260045260246000fd5b60006002820490506001821680611cf057607f821691505b602082108103611d0357611d02611ca9565b5b50919050565b7f4552433732313a20617070726f76616c20746f2063757272656e74206f776e6560008201527f7200000000000000000000000000000000000000000000000000000000000000602082015250565b6000611d656021836117c9565b9150611d7082611d09565b604082019050919050565b60006020820190508181036000830152611d9481611d58565b9050919050565b7f4552433732313a20617070726f76652063616c6c6572206973206e6f7420746f60008201527f6b656e206f776e6572206e6f7220617070726f76656420666f7220616c6c0000602082015250565b6000611df7603e836117c9565b9150611e0282611d9b565b604082019050919050565b60006020820190508181036000830152611e2681611dea565b9050919050565b7f4552433732313a2063616c6c6572206973206e6f7420746f6b656e206f776e6560008201527f72206e6f7220617070726f766564000000000000000000000000000000000000602082015250565b6000611e89602e836117c9565b9150611e9482611e2d565b604082019050919050565b60006020820190508181036000830152611eb881611e7c565b9050919050565b7f4552433732313a20696e76616c696420746f6b656e2049440000000000000000600082015250565b6000611ef56018836117c9565b9150611f0082611ebf565b602082019050919050565b60006020820190508181036000830152611f2481611ee8565b9050919050565b7f4552433732313a2061646472657373207a65726f206973206e6f74206120766160008201527f6c6964206f776e65720000000000000000000000000000000000000000000000602082015250565b6000611f876029836117c9565b9150611f9282611f2b565b604082019050919050565b60006020820190508181036000830152611fb681611f7a565b9050919050565b600081905092915050565b7f7b00000000000000000000000000000000000000000000000000000000000000600082015250565b6000611ffe600183611fbd565b915061200982611fc8565b600182019050919050565b7f226e616d65223a20224261646765202300000000000000000000000000000000600082015250565b600061204a601083611fbd565b915061205582612014565b601082019050919050565b600061206b826117be565b6120758185611fbd565b93506120858185602086016117da565b80840191505092915050565b7f222c000000000000000000000000000000000000000000000000000000000000600082015250565b60006120c7600283611fbd565b91506120d282612091565b600282019050919050565b7f226465736372697074696f6e223a20224261646765204e46542077697468205560008201527f524c20496d6167652e222c000000000000000000000000000000000000000000602082015250565b6000612139602b83611fbd565b9150612144826120dd565b602b82019050919050565b7f22696d616765223a202268747470733a2f2f697066732e696f2f697066732f5160008201527f6d6543597775454d7542465473395a6835696b704148317a5233704a7a76424560208201527f7a626b73794e6a666e7441486222000000000000000000000000000000000000604082015250565b60006121d1604e83611fbd565b91506121dc8261214f565b604e82019050919050565b7f7d00000000000000000000000000000000000000000000000000000000000000600082015250565b600061221d600183611fbd565b9150612228826121e7565b600182019050919050565b600061223e82611ff1565b91506122498261203d565b91506122558284612060565b9150612260826120ba565b915061226b8261212c565b9150612276826121c4565b915061228182612210565b915081905092915050565b7f646174613a6170706c69636174696f6e2f6a736f6e3b6261736536342c000000600082015250565b60006122c2601d83611fbd565b91506122cd8261228c565b601d82019050919050565b60006122e3826122b5565b91506122ef8284612060565b915081905092915050565b7f4552433732313a207472616e736665722066726f6d20696e636f72726563742060008201527f6f776e6572000000000000000000000000000000000000000000000000000000602082015250565b60006123566025836117c9565b9150612361826122fa565b604082019050919050565b6000602082019050818103600083015261238581612349565b9050919050565b7f4552433732313a207472616e7366657220746f20746865207a65726f2061646460008201527f7265737300000000000000000000000000000000000000000000000000000000602082015250565b60006123e86024836117c9565b91506123f38261238c565b604082019050919050565b60006020820190508181036000830152612417816123db565b9050919050565b7f4e487b7100000000000000000000000000000000000000000000000000000000600052601160045260246000fd5b600061245882611870565b915061246383611870565b925082820390508181111561247b5761247a61241e565b5b92915050565b600061248c82611870565b915061249783611870565b92508282019050808211156124af576124ae61241e565b5b92915050565b7f4552433732313a206d696e7420746f20746865207a65726f2061646472657373600082015250565b60006124eb6020836117c9565b91506124f6826124b5565b602082019050919050565b6000602082019050818103600083015261251a816124de565b9050919050565b7f4552433732313a20746f6b656e20616c7265616479206d696e74656400000000600082015250565b6000612557601c836117c9565b915061256282612521565b602082019050919050565b600060208201905081810360008301526125868161254a565b9050919050565b600061259882611870565b91507fffffffffffffffffffffffffffffffffffffffffffffffffffffffffffffffff82036125ca576125c961241e565b5b600182019050919050565b7f4552433732313a20617070726f766520746f2063616c6c657200000000000000600082015250565b600061260b6019836117c9565b9150612616826125d5565b602082019050919050565b6000602082019050818103600083015261263a816125fe565b9050919050565b7f4552433732313a207472616e7366657220746f206e6f6e20455243373231526560008201527f63656976657220696d706c656d656e7465720000000000000000000000000000602082015250565b600061269d6032836117c9565b91506126a882612641565b604082019050919050565b600060208201905081810360008301526126cc81612690565b9050919050565b7f4e487b7100000000000000000000000000000000000000000000000000000000600052601260045260246000fd5b600061270d82611870565b915061271883611870565b925082612728576127276126d3565b5b828204905092915050565b600061273e82611870565b915061274983611870565b925082612759576127586126d3565b5b828206905092915050565b7f4e487b7100000000000000000000000000000000000000000000000000000000600052603260045260246000fd5b600061279e82611870565b91506127a983611870565b92508282026127b781611870565b915082820484148315176127ce576127cd61241e565b5b5092915050565b600081519050919050565b600082825260208201905092915050565b60006127fc826127d5565b61280681856127e0565b93506128168185602086016117da565b61281f81611804565b840191505092915050565b600060808201905061283f6000830187611905565b61284c6020830186611905565b6128596040830185611a1b565b818103606083015261286b81846127f1565b905095945050505050565b6000815190506128858161172f565b92915050565b6000602082840312156128a1576128a06116f9565b5b60006128af84828501612876565b9150509291505056fe4142434445464748494a4b4c4d4e4f505152535455565758595a6162636465666768696a6b6c6d6e6f707172737475767778797a303132333435363738392b2fa2646970667358221220a3f81c9613b79a5985114b5e105f505e17888d1b8711ad7b692763f512ab894864736f6c63430008110033",
  "linkReferences": {},
  "deployedLinkReferences": {}
}