{
  "_format": "hh-sol-artifact-1",
  "contractName": "BadgeToken",
  "sourceName": "contracts/BadgeToken.sol",
  "abi": [
    {
      "inputs": [
        {
          "internalType": "string",
          "name": "_name",
          "type": "string"
        },
        {
          "internalType": "string",
          "name": "_symbol",
          "type": "string"
        }
      ],
      "stateMutability": "nonpayable",
      "type": "constructor"
    },
    {
      "anonymous": false,
      "inputs": [
        {
          "indexed": true,
          "internalType": "address",
          "name": "owner",
          "type": "address"
        },
        {
          "indexed": true,
          "internalType": "address",
          "name": "approved",
          "type": "address"
        },
        {
          "indexed": true,
          "internalType": "uint256",
          "name": "tokenId",
          "type": "uint256"
        }
      ],
      "name": "Approval",
      "type": "event"
    },
    {
      "anonymous": false,
      "inputs": [
        {
          "indexed": true,
          "internalType": "address",
          "name": "owner",
          "type": "address"
        },
        {
          "indexed": true,
          "internalType": "address",
          "name": "operator",
          "type": "address"
        },
        {
          "indexed": false,
          "internalType": "bool",
          "name": "approved",
          "type": "bool"
        }
      ],
      "name": "ApprovalForAll",
      "type": "event"
    },
    {
      "anonymous": false,
      "inputs": [
        {
          "indexed": true,
          "internalType": "address",
          "name": "from",
          "type": "address"
        },
        {
          "indexed": true,
          "internalType": "address",
          "name": "to",
          "type": "address"
        },
        {
          "indexed": true,
          "internalType": "uint256",
          "name": "tokenId",
          "type": "uint256"
        }
      ],
      "name": "Transfer",
      "type": "event"
    },
    {
      "inputs": [
        {
          "internalType": "address",
          "name": "to",
          "type": "address"
        },
        {
          "internalType": "uint256",
          "name": "tokenId",
          "type": "uint256"
        }
      ],
      "name": "approve",
      "outputs": [],
      "stateMutability": "nonpayable",
      "type": "function"
    },
    {
      "inputs": [
        {
          "internalType": "address",
          "name": "owner",
          "type": "address"
        }
      ],
      "name": "balanceOf",
      "outputs": [
        {
          "internalType": "uint256",
          "name": "",
          "type": "uint256"
        }
      ],
      "stateMutability": "view",
      "type": "function"
    },
    {
      "inputs": [
        {
          "internalType": "uint256",
          "name": "tokenId",
          "type": "uint256"
        }
      ],
      "name": "getApproved",
      "outputs": [
        {
          "internalType": "address",
          "name": "",
          "type": "address"
        }
      ],
      "stateMutability": "view",
      "type": "function"
    },
    {
      "inputs": [
        {
          "internalType": "address",
          "name": "owner",
          "type": "address"
        },
        {
          "internalType": "address",
          "name": "operator",
          "type": "address"
        }
      ],
      "name": "isApprovedForAll",
      "outputs": [
        {
          "internalType": "bool",
          "name": "",
          "type": "bool"
        }
      ],
      "stateMutability": "view",
      "type": "function"
    },
    {
      "inputs": [
        {
          "internalType": "address",
          "name": "_to",
          "type": "address"
        }
      ],
      "name": "mintTo",
      "outputs": [],
      "stateMutability": "nonpayable",
      "type": "function"
    },
    {
      "inputs": [],
      "name": "name",
      "outputs": [
        {
          "internalType": "string",
          "name": "",
          "type": "string"
        }
      ],
      "stateMutability": "view",
      "type": "function"
    },
    {
      "inputs": [
        {
          "internalType": "uint256",
          "name": "tokenId",
          "type": "uint256"
        }
      ],
      "name": "ownerOf",
      "outputs": [
        {
          "internalType": "address",
          "name": "",
          "type": "address"
        }
      ],
      "stateMutability": "view",
      "type": "function"
    },
    {
      "inputs": [
        {
          "internalType": "address",
          "name": "from",
          "type": "address"
        },
        {
          "internalType": "address",
          "name": "to",
          "type": "address"
        },
        {
          "internalType": "uint256",
          "name": "tokenId",
          "type": "uint256"
        }
      ],
      "name": "safeTransferFrom",
      "outputs": [],
      "stateMutability": "nonpayable",
      "type": "function"
    },
    {
      "inputs": [
        {
          "internalType": "address",
          "name": "from",
          "type": "address"
        },
        {
          "internalType": "address",
          "name": "to",
          "type": "address"
        },
        {
          "internalType": "uint256",
          "name": "tokenId",
          "type": "uint256"
        },
        {
          "internalType": "bytes",
          "name": "data",
          "type": "bytes"
        }
      ],
      "name": "safeTransferFrom",
      "outputs": [],
      "stateMutability": "nonpayable",
      "type": "function"
    },
    {
      "inputs": [
        {
          "internalType": "address",
          "name": "operator",
          "type": "address"
        },
        {
          "internalType": "bool",
          "name": "approved",
          "type": "bool"
        }
      ],
      "name": "setApprovalForAll",
      "outputs": [],
      "stateMutability": "nonpayable",
      "type": "function"
    },
    {
      "inputs": [
        {
          "internalType": "bytes4",
          "name": "interfaceId",
          "type": "bytes4"
        }
      ],
      "name": "supportsInterface",
      "outputs": [
        {
          "internalType": "bool",
          "name": "",
          "type": "bool"
        }
      ],
      "stateMutability": "view",
      "type": "function"
    },
    {
      "inputs": [],
      "name": "symbol",
      "outputs": [
        {
          "internalType": "string",
          "name": "",
          "type": "string"
        }
      ],
      "stateMutability": "view",
      "type": "function"
    },
    {
      "inputs": [
        {
          "internalType": "uint256",
          "name": "tokenId",
          "type": "uint256"
        }
      ],
      "name": "tokenURI",
      "outputs": [
        {
          "internalType": "string",
          "name": "",
          "type": "string"
        }
      ],
      "stateMutability": "pure",
      "type": "function"
    },
    {
      "inputs": [
        {
          "internalType": "address",
          "name": "from",
          "type": "address"
        },
        {
          "internalType": "address",
          "name": "to",
          "type": "address"
        },
        {
          "internalType": "uint256",
          "name": "tokenId",
          "type": "uint256"
        }
      ],
      "name": "transferFrom",
      "outputs": [],
      "stateMutability": "nonpayable",
      "type": "function"
    }
  ],
  "bytecode": "0x608060405260006006553480156200001657600080fd5b50604051620030d3380380620030d383398181016040528101906200003c9190620001ff565b818181600090816200004f9190620004cf565b508060019081620000619190620004cf565b5050505050620005b6565b6000604051905090565b600080fd5b600080fd5b600080fd5b600080fd5b6000601f19601f8301169050919050565b7f4e487b7100000000000000000000000000000000000000000000000000000000600052604160045260246000fd5b620000d5826200008a565b810181811067ffffffffffffffff82111715620000f757620000f66200009b565b5b80604052505050565b60006200010c6200006c565b90506200011a8282620000ca565b919050565b600067ffffffffffffffff8211156200013d576200013c6200009b565b5b62000148826200008a565b9050602081019050919050565b60005b838110156200017557808201518184015260208101905062000158565b60008484015250505050565b60006200019862000192846200011f565b62000100565b905082815260208101848484011115620001b757620001b662000085565b5b620001c484828562000155565b509392505050565b600082601f830112620001e457620001e362000080565b5b8151620001f684826020860162000181565b91505092915050565b6000806040838503121562000219576200021862000076565b5b600083015167ffffffffffffffff8111156200023a57620002396200007b565b5b6200024885828601620001cc565b925050602083015167ffffffffffffffff8111156200026c576200026b6200007b565b5b6200027a85828601620001cc565b9150509250929050565b600081519050919050565b7f4e487b7100000000000000000000000000000000000000000000000000000000600052602260045260246000fd5b60006002820490506001821680620002d757607f821691505b602082108103620002ed57620002ec6200028f565b5b50919050565b60008190508160005260206000209050919050565b60006020601f8301049050919050565b600082821b905092915050565b600060088302620003577fffffffffffffffffffffffffffffffffffffffffffffffffffffffffffffffff8262000318565b62000363868362000318565b95508019841693508086168417925050509392505050565b6000819050919050565b6000819050919050565b6000620003b0620003aa620003a4846200037b565b62000385565b6200037b565b9050919050565b6000819050919050565b620003cc836200038f565b620003e4620003db82620003b7565b84845462000325565b825550505050565b600090565b620003fb620003ec565b62000408818484620003c1565b505050565b5b81811015620004305762000424600082620003f1565b6001810190506200040e565b5050565b601f8211156200047f576200044981620002f3565b620004548462000308565b8101602085101562000464578190505b6200047c620004738562000308565b8301826200040d565b50505b505050565b600082821c905092915050565b6000620004a46000198460080262000484565b1980831691505092915050565b6000620004bf838362000491565b9150826002028217905092915050565b620004da8262000284565b67ffffffffffffffff811115620004f657620004f56200009b565b5b620005028254620002be565b6200050f82828562000434565b600060209050601f83116001811462000547576000841562000532578287015190505b6200053e8582620004b1565b865550620005ae565b601f1984166200055786620002f3565b60005b8281101562000581578489015182556001820191506020850194506020810190506200055a565b86831015620005a157848901516200059d601f89168262000491565b8355505b6001600288020188555050505b505050505050565b612b0d80620005c66000396000f3fe608060405234801561001057600080fd5b50600436106100ea5760003560e01c806370a082311161008c578063a22cb46511610066578063a22cb4651461025b578063b88d4fde14610277578063c87b56dd14610293578063e985e9c5146102c3576100ea565b806370a08231146101f1578063755edd171461022157806395d89b411461023d576100ea565b8063095ea7b3116100c8578063095ea7b31461016d57806323b872dd1461018957806342842e0e146101a55780636352211e146101c1576100ea565b806301ffc9a7146100ef57806306fdde031461011f578063081812fc1461013d575b600080fd5b6101096004803603810190610104919061183a565b6102f3565b6040516101169190611882565b60405180910390f35b6101276103d5565b604051610134919061192d565b60405180910390f35b61015760048036038101906101529190611985565b610467565b60405161016491906119f3565b60405180910390f35b61018760048036038101906101829190611a3a565b6104ad565b005b6101a3600480360381019061019e9190611a7a565b6105c4565b005b6101bf60048036038101906101ba9190611a7a565b610624565b005b6101db60048036038101906101d69190611985565b610644565b6040516101e891906119f3565b60405180910390f35b61020b60048036038101906102069190611acd565b6106f5565b6040516102189190611b09565b60405180910390f35b61023b60048036038101906102369190611acd565b6107ac565b005b6102456107ce565b604051610252919061192d565b60405180910390f35b61027560048036038101906102709190611b50565b610860565b005b610291600480360381019061028c9190611cc5565b610876565b005b6102ad60048036038101906102a89190611985565b6108d8565b6040516102ba919061192d565b60405180910390f35b6102dd60048036038101906102d89190611d48565b6109ee565b6040516102ea9190611882565b60405180910390f35b60007f80ac58cd000000000000000000000000000000000000000000000000000000007bffffffffffffffffffffffffffffffffffffffffffffffffffffffff1916827bffffffffffffffffffffffffffffffffffffffffffffffffffffffff191614806103be57507f5b5e139f000000000000000000000000000000000000000000000000000000007bffffffffffffffffffffffffffffffffffffffffffffffffffffffff1916827bffffffffffffffffffffffffffffffffffffffffffffffffffffffff1916145b806103ce57506103cd82610a82565b5b9050919050565b6060600080546103e490611db7565b80601f016020809104026020016040519081016040528092919081815260200182805461041090611db7565b801561045d5780601f106104325761010080835404028352916020019161045d565b820191906000526020600020905b81548152906001019060200180831161044057829003601f168201915b5050505050905090565b600061047282610aec565b6004600083815260200190815260200160002060009054906101000a900473ffffffffffffffffffffffffffffffffffffffff169050919050565b60006104b882610644565b90508073ffffffffffffffffffffffffffffffffffffffff168373ffffffffffffffffffffffffffffffffffffffff1603610528576040517f08c379a000000000000000000000000000000000000000000000000000000000815260040161051f90611e5a565b60405180910390fd5b8073ffffffffffffffffffffffffffffffffffffffff16610547610b37565b73ffffffffffffffffffffffffffffffffffffffff161480610576575061057581610570610b37565b6109ee565b5b6105b5576040517f08c379a00000000000000000000000000000000000000000000000000000000081526004016105ac90611eec565b60405180910390fd5b6105bf8383610b3f565b505050565b6105d56105cf610b37565b82610bf8565b610614576040517f08c379a000000000000000000000000000000000000000000000000000000000815260040161060b90611f7e565b60405180910390fd5b61061f838383610c8d565b505050565b61063f83838360405180602001604052806000815250610876565b505050565b6000806002600084815260200190815260200160002060009054906101000a900473ffffffffffffffffffffffffffffffffffffffff169050600073ffffffffffffffffffffffffffffffffffffffff168173ffffffffffffffffffffffffffffffffffffffff16036106ec576040517f08c379a00000000000000000000000000000000000000000000000000000000081526004016106e390611fea565b60405180910390fd5b80915050919050565b60008073ffffffffffffffffffffffffffffffffffffffff168273ffffffffffffffffffffffffffffffffffffffff1603610765576040517f08c379a000000000000000000000000000000000000000000000000000000000815260040161075c9061207c565b60405180910390fd5b600360008373ffffffffffffffffffffffffffffffffffffffff1673ffffffffffffffffffffffffffffffffffffffff168152602001908152602001600020549050919050565b60006107b6610ef3565b90506107c28282610f09565b6107ca6110e2565b5050565b6060600180546107dd90611db7565b80601f016020809104026020016040519081016040528092919081815260200182805461080990611db7565b80156108565780601f1061082b57610100808354040283529160200191610856565b820191906000526020600020905b81548152906001019060200180831161083957829003601f168201915b5050505050905090565b61087261086b610b37565b83836110fc565b5050565b610887610881610b37565b83610bf8565b6108c6576040517f08c379a00000000000000000000000000000000000000000000000000000000081526004016108bd90611f7e565b60405180910390fd5b6108d284848484611268565b50505050565b60606108e26117a7565b60405180610120016040528061010081526020016129d86101009139816000600381106109125761091161209c565b5b6020020181905250610923836112c4565b816001600381106109375761093661209c565b5b60200201819052506040518060400160405280600d81526020017f3c2f746578743e3c2f7376673e00000000000000000000000000000000000000815250816002600381106109895761098861209c565b5b602002018190525060006109c361099f856112c4565b6040516020016109af9190612341565b604051602081830303815290604052611424565b9050806040516020016109d691906123e6565b60405160208183030381529060405292505050919050565b6000600560008473ffffffffffffffffffffffffffffffffffffffff1673ffffffffffffffffffffffffffffffffffffffff16815260200190815260200160002060008373ffffffffffffffffffffffffffffffffffffffff1673ffffffffffffffffffffffffffffffffffffffff16815260200190815260200160002060009054906101000a900460ff16905092915050565b60007f01ffc9a7000000000000000000000000000000000000000000000000000000007bffffffffffffffffffffffffffffffffffffffffffffffffffffffff1916827bffffffffffffffffffffffffffffffffffffffffffffffffffffffff1916149050919050565b610af581611587565b610b34576040517f08c379a0000000000000000000000000000000000000000000000000000000008152600401610b2b90611fea565b60405180910390fd5b50565b600033905090565b816004600083815260200190815260200160002060006101000a81548173ffffffffffffffffffffffffffffffffffffffff021916908373ffffffffffffffffffffffffffffffffffffffff160217905550808273ffffffffffffffffffffffffffffffffffffffff16610bb283610644565b73ffffffffffffffffffffffffffffffffffffffff167f8c5be1e5ebec7d5bd14f71427d1e84f3dd0314c0f7b2291e5b200ac8c7c3b92560405160405180910390a45050565b600080610c0483610644565b90508073ffffffffffffffffffffffffffffffffffffffff168473ffffffffffffffffffffffffffffffffffffffff161480610c465750610c4581856109ee565b5b80610c8457508373ffffffffffffffffffffffffffffffffffffffff16610c6c84610467565b73ffffffffffffffffffffffffffffffffffffffff16145b91505092915050565b8273ffffffffffffffffffffffffffffffffffffffff16610cad82610644565b73ffffffffffffffffffffffffffffffffffffffff1614610d03576040517f08c379a0000000000000000000000000000000000000000000000000000000008152600401610cfa9061247a565b60405180910390fd5b600073ffffffffffffffffffffffffffffffffffffffff168273ffffffffffffffffffffffffffffffffffffffff1603610d72576040517f08c379a0000000000000000000000000000000000000000000000000000000008152600401610d699061250c565b60405180910390fd5b610d7d8383836115f3565b610d88600082610b3f565b6001600360008573ffffffffffffffffffffffffffffffffffffffff1673ffffffffffffffffffffffffffffffffffffffff1681526020019081526020016000206000828254610dd8919061255b565b925050819055506001600360008473ffffffffffffffffffffffffffffffffffffffff1673ffffffffffffffffffffffffffffffffffffffff1681526020019081526020016000206000828254610e2f919061258f565b92505081905550816002600083815260200190815260200160002060006101000a81548173ffffffffffffffffffffffffffffffffffffffff021916908373ffffffffffffffffffffffffffffffffffffffff160217905550808273ffffffffffffffffffffffffffffffffffffffff168473ffffffffffffffffffffffffffffffffffffffff167fddf252ad1be2c89b69c2b068fc378daa952ba7f163c4a11628f55a4df523b3ef60405160405180910390a4610eee8383836115f8565b505050565b60006001600654610f04919061258f565b905090565b600073ffffffffffffffffffffffffffffffffffffffff168273ffffffffffffffffffffffffffffffffffffffff1603610f78576040517f08c379a0000000000000000000000000000000000000000000000000000000008152600401610f6f9061260f565b60405180910390fd5b610f8181611587565b15610fc1576040517f08c379a0000000000000000000000000000000000000000000000000000000008152600401610fb89061267b565b60405180910390fd5b610fcd600083836115f3565b6001600360008473ffffffffffffffffffffffffffffffffffffffff1673ffffffffffffffffffffffffffffffffffffffff168152602001908152602001600020600082825461101d919061258f565b92505081905550816002600083815260200190815260200160002060006101000a81548173ffffffffffffffffffffffffffffffffffffffff021916908373ffffffffffffffffffffffffffffffffffffffff160217905550808273ffffffffffffffffffffffffffffffffffffffff16600073ffffffffffffffffffffffffffffffffffffffff167fddf252ad1be2c89b69c2b068fc378daa952ba7f163c4a11628f55a4df523b3ef60405160405180910390a46110de600083836115f8565b5050565b600660008154809291906110f59061269b565b9190505550565b8173ffffffffffffffffffffffffffffffffffffffff168373ffffffffffffffffffffffffffffffffffffffff160361116a576040517f08c379a00000000000000000000000000000000000000000000000000000000081526004016111619061272f565b60405180910390fd5b80600560008573ffffffffffffffffffffffffffffffffffffffff1673ffffffffffffffffffffffffffffffffffffffff16815260200190815260200160002060008473ffffffffffffffffffffffffffffffffffffffff1673ffffffffffffffffffffffffffffffffffffffff16815260200190815260200160002060006101000a81548160ff0219169083151502179055508173ffffffffffffffffffffffffffffffffffffffff168373ffffffffffffffffffffffffffffffffffffffff167f17307eab39ab6107e8899845ad3d59bd9653f200f220920489ca2b5937696c318360405161125b9190611882565b60405180910390a3505050565b611273848484610c8d565b61127f848484846115fd565b6112be576040517f08c379a00000000000000000000000000000000000000000000000000000000081526004016112b5906127c1565b60405180910390fd5b50505050565b60606000820361130b576040518060400160405280600181526020017f3000000000000000000000000000000000000000000000000000000000000000815250905061141f565b600082905060005b6000821461133d5780806113269061269b565b915050600a826113369190612810565b9150611313565b60008167ffffffffffffffff81111561135957611358611b9a565b5b6040519080825280601f01601f19166020018201604052801561138b5781602001600182028036833780820191505090505b5090505b60008514611418576001826113a4919061255b565b9150600a856113b39190612841565b60306113bf919061258f565b60f81b8183815181106113d5576113d461209c565b5b60200101907effffffffffffffffffffffffffffffffffffffffffffffffffffffffffffff1916908160001a905350600a856114119190612810565b945061138f565b8093505050505b919050565b6060600082510361144657604051806020016040528060008152509050611582565b60006040518060600160405280604081526020016129986040913990506000600360028551611475919061258f565b61147f9190612810565b600461148b9190612872565b67ffffffffffffffff8111156114a4576114a3611b9a565b5b6040519080825280601f01601f1916602001820160405280156114d65781602001600182028036833780820191505090505b509050600182016020820185865187015b80821015611542576003820191508151603f8160121c168501518453600184019350603f81600c1c168501518453600184019350603f8160061c168501518453600184019350603f81168501518453600184019350506114e7565b505060038651066001811461155e576002811461157157611579565b603d6001830353603d6002830353611579565b603d60018303535b50505080925050505b919050565b60008073ffffffffffffffffffffffffffffffffffffffff166002600084815260200190815260200160002060009054906101000a900473ffffffffffffffffffffffffffffffffffffffff1673ffffffffffffffffffffffffffffffffffffffff1614159050919050565b505050565b505050565b600061161e8473ffffffffffffffffffffffffffffffffffffffff16611784565b15611777578373ffffffffffffffffffffffffffffffffffffffff1663150b7a02611647610b37565b8786866040518563ffffffff1660e01b81526004016116699493929190612909565b6020604051808303816000875af19250505080156116a557506040513d601f19601f820116820180604052508101906116a2919061296a565b60015b611727573d80600081146116d5576040519150601f19603f3d011682016040523d82523d6000602084013e6116da565b606091505b50600081510361171f576040517f08c379a0000000000000000000000000000000000000000000000000000000008152600401611716906127c1565b60405180910390fd5b805181602001fd5b63150b7a0260e01b7bffffffffffffffffffffffffffffffffffffffffffffffffffffffff1916817bffffffffffffffffffffffffffffffffffffffffffffffffffffffff19161491505061177c565b600190505b949350505050565b6000808273ffffffffffffffffffffffffffffffffffffffff163b119050919050565b60405180606001604052806003905b60608152602001906001900390816117b65790505090565b6000604051905090565b600080fd5b600080fd5b60007fffffffff0000000000000000000000000000000000000000000000000000000082169050919050565b611817816117e2565b811461182257600080fd5b50565b6000813590506118348161180e565b92915050565b6000602082840312156118505761184f6117d8565b5b600061185e84828501611825565b91505092915050565b60008115159050919050565b61187c81611867565b82525050565b60006020820190506118976000830184611873565b92915050565b600081519050919050565b600082825260208201905092915050565b60005b838110156118d75780820151818401526020810190506118bc565b60008484015250505050565b6000601f19601f8301169050919050565b60006118ff8261189d565b61190981856118a8565b93506119198185602086016118b9565b611922816118e3565b840191505092915050565b6000602082019050818103600083015261194781846118f4565b905092915050565b6000819050919050565b6119628161194f565b811461196d57600080fd5b50565b60008135905061197f81611959565b92915050565b60006020828403121561199b5761199a6117d8565b5b60006119a984828501611970565b91505092915050565b600073ffffffffffffffffffffffffffffffffffffffff82169050919050565b60006119dd826119b2565b9050919050565b6119ed816119d2565b82525050565b6000602082019050611a0860008301846119e4565b92915050565b611a17816119d2565b8114611a2257600080fd5b50565b600081359050611a3481611a0e565b92915050565b60008060408385031215611a5157611a506117d8565b5b6000611a5f85828601611a25565b9250506020611a7085828601611970565b9150509250929050565b600080600060608486031215611a9357611a926117d8565b5b6000611aa186828701611a25565b9350506020611ab286828701611a25565b9250506040611ac386828701611970565b9150509250925092565b600060208284031215611ae357611ae26117d8565b5b6000611af184828501611a25565b91505092915050565b611b038161194f565b82525050565b6000602082019050611b1e6000830184611afa565b92915050565b611b2d81611867565b8114611b3857600080fd5b50565b600081359050611b4a81611b24565b92915050565b60008060408385031215611b6757611b666117d8565b5b6000611b7585828601611a25565b9250506020611b8685828601611b3b565b9150509250929050565b600080fd5b600080fd5b7f4e487b7100000000000000000000000000000000000000000000000000000000600052604160045260246000fd5b611bd2826118e3565b810181811067ffffffffffffffff82111715611bf157611bf0611b9a565b5b80604052505050565b6000611c046117ce565b9050611c108282611bc9565b919050565b600067ffffffffffffffff821115611c3057611c2f611b9a565b5b611c39826118e3565b9050602081019050919050565b82818337600083830152505050565b6000611c68611c6384611c15565b611bfa565b905082815260208101848484011115611c8457611c83611b95565b5b611c8f848285611c46565b509392505050565b600082601f830112611cac57611cab611b90565b5b8135611cbc848260208601611c55565b91505092915050565b60008060008060808587031215611cdf57611cde6117d8565b5b6000611ced87828801611a25565b9450506020611cfe87828801611a25565b9350506040611d0f87828801611970565b925050606085013567ffffffffffffffff811115611d3057611d2f6117dd565b5b611d3c87828801611c97565b91505092959194509250565b60008060408385031215611d5f57611d5e6117d8565b5b6000611d6d85828601611a25565b9250506020611d7e85828601611a25565b9150509250929050565b7f4e487b7100000000000000000000000000000000000000000000000000000000600052602260045260246000fd5b60006002820490506001821680611dcf57607f821691505b602082108103611de257611de1611d88565b5b50919050565b7f4552433732313a20617070726f76616c20746f2063757272656e74206f776e6560008201527f7200000000000000000000000000000000000000000000000000000000000000602082015250565b6000611e446021836118a8565b9150611e4f82611de8565b604082019050919050565b60006020820190508181036000830152611e7381611e37565b9050919050565b7f4552433732313a20617070726f76652063616c6c6572206973206e6f7420746f60008201527f6b656e206f776e6572206e6f7220617070726f76656420666f7220616c6c0000602082015250565b6000611ed6603e836118a8565b9150611ee182611e7a565b604082019050919050565b60006020820190508181036000830152611f0581611ec9565b9050919050565b7f4552433732313a2063616c6c6572206973206e6f7420746f6b656e206f776e6560008201527f72206e6f7220617070726f766564000000000000000000000000000000000000602082015250565b6000611f68602e836118a8565b9150611f7382611f0c565b604082019050919050565b60006020820190508181036000830152611f9781611f5b565b9050919050565b7f4552433732313a20696e76616c696420746f6b656e2049440000000000000000600082015250565b6000611fd46018836118a8565b9150611fdf82611f9e565b602082019050919050565b6000602082019050818103600083015261200381611fc7565b9050919050565b7f4552433732313a2061646472657373207a65726f206973206e6f74206120766160008201527f6c6964206f776e65720000000000000000000000000000000000000000000000602082015250565b60006120666029836118a8565b91506120718261200a565b604082019050919050565b6000602082019050818103600083015261209581612059565b9050919050565b7f4e487b7100000000000000000000000000000000000000000000000000000000600052603260045260246000fd5b600081905092915050565b7f7b00000000000000000000000000000000000000000000000000000000000000600082015250565b600061210c6001836120cb565b9150612117826120d6565b600182019050919050565b7f226e616d65223a20224261646765202300000000000000000000000000000000600082015250565b60006121586010836120cb565b915061216382612122565b601082019050919050565b60006121798261189d565b61218381856120cb565b93506121938185602086016118b9565b80840191505092915050565b7f222c000000000000000000000000000000000000000000000000000000000000600082015250565b60006121d56002836120cb565b91506121e08261219f565b600282019050919050565b7f226465736372697074696f6e223a20224261646765204e46542077697468205560008201527f524c20496d6167652e222c000000000000000000000000000000000000000000602082015250565b6000612247602b836120cb565b9150612252826121eb565b602b82019050919050565b7f22696d616765223a202268747470733a2f2f676174657761792e70696e61746160008201527f2e636c6f75642f697066732f516d6543597775454d7542465473395a6835696b60208201527f704148317a5233704a7a7642457a626b73794e6a666e74414862220000000000604082015250565b60006122df605b836120cb565b91506122ea8261225d565b605b82019050919050565b7f7d00000000000000000000000000000000000000000000000000000000000000600082015250565b600061232b6001836120cb565b9150612336826122f5565b600182019050919050565b600061234c826120ff565b91506123578261214b565b9150612363828461216e565b915061236e826121c8565b91506123798261223a565b9150612384826122d2565b915061238f8261231e565b915081905092915050565b7f646174613a6170706c69636174696f6e2f6a736f6e3b6261736536342c000000600082015250565b60006123d0601d836120cb565b91506123db8261239a565b601d82019050919050565b60006123f1826123c3565b91506123fd828461216e565b915081905092915050565b7f4552433732313a207472616e736665722066726f6d20696e636f72726563742060008201527f6f776e6572000000000000000000000000000000000000000000000000000000602082015250565b60006124646025836118a8565b915061246f82612408565b604082019050919050565b6000602082019050818103600083015261249381612457565b9050919050565b7f4552433732313a207472616e7366657220746f20746865207a65726f2061646460008201527f7265737300000000000000000000000000000000000000000000000000000000602082015250565b60006124f66024836118a8565b91506125018261249a565b604082019050919050565b60006020820190508181036000830152612525816124e9565b9050919050565b7f4e487b7100000000000000000000000000000000000000000000000000000000600052601160045260246000fd5b60006125668261194f565b91506125718361194f565b92508282039050818111156125895761258861252c565b5b92915050565b600061259a8261194f565b91506125a58361194f565b92508282019050808211156125bd576125bc61252c565b5b92915050565b7f4552433732313a206d696e7420746f20746865207a65726f2061646472657373600082015250565b60006125f96020836118a8565b9150612604826125c3565b602082019050919050565b60006020820190508181036000830152612628816125ec565b9050919050565b7f4552433732313a20746f6b656e20616c7265616479206d696e74656400000000600082015250565b6000612665601c836118a8565b91506126708261262f565b602082019050919050565b6000602082019050818103600083015261269481612658565b9050919050565b60006126a68261194f565b91507fffffffffffffffffffffffffffffffffffffffffffffffffffffffffffffffff82036126d8576126d761252c565b5b600182019050919050565b7f4552433732313a20617070726f766520746f2063616c6c657200000000000000600082015250565b60006127196019836118a8565b9150612724826126e3565b602082019050919050565b600060208201905081810360008301526127488161270c565b9050919050565b7f4552433732313a207472616e7366657220746f206e6f6e20455243373231526560008201527f63656976657220696d706c656d656e7465720000000000000000000000000000602082015250565b60006127ab6032836118a8565b91506127b68261274f565b604082019050919050565b600060208201905081810360008301526127da8161279e565b9050919050565b7f4e487b7100000000000000000000000000000000000000000000000000000000600052601260045260246000fd5b600061281b8261194f565b91506128268361194f565b925082612836576128356127e1565b5b828204905092915050565b600061284c8261194f565b91506128578361194f565b925082612867576128666127e1565b5b828206905092915050565b600061287d8261194f565b91506128888361194f565b92508282026128968161194f565b915082820484148315176128ad576128ac61252c565b5b5092915050565b600081519050919050565b600082825260208201905092915050565b60006128db826128b4565b6128e581856128bf565b93506128f58185602086016118b9565b6128fe816118e3565b840191505092915050565b600060808201905061291e60008301876119e4565b61292b60208301866119e4565b6129386040830185611afa565b818103606083015261294a81846128d0565b905095945050505050565b6000815190506129648161180e565b92915050565b6000602082840312156129805761297f6117d8565b5b600061298e84828501612955565b9150509291505056fe4142434445464748494a4b4c4d4e4f505152535455565758595a6162636465666768696a6b6c6d6e6f707172737475767778797a303132333435363738392b2f3c73766720786d6c6e733d27687474703a2f2f7777772e77332e6f72672f323030302f73766727207072657365727665417370656374526174696f3d27784d696e594d696e206d656574272076696577426f783d273020302033353020333530273e3c7374796c653e2e62617365207b2066696c6c3a2077686974653b20666f6e742d66616d696c793a2073657269663b20666f6e742d73697a653a2033303070783b207d3c2f7374796c653e3c726563742077696474683d273130302527206865696768743d2731303025272066696c6c3d2762726f776e27202f3e3c7465787420783d273130302720793d273236302720636c6173733d2762617365273ea2646970667358221220a5af136c80a6b8f66eb11752514c42bd57ff329e7c3c654629172a789c44b21564736f6c63430008110033",
  "linkReferences": {},
  "deployedLinkReferences": {}
}