{
  "_format": "hh-sol-artifact-1",
  "contractName": "NFTMarketplace",
  "sourceName": "contracts/NFTMarketplace.sol",
  "abi": [
    {
      "inputs": [],
      "stateMutability": "nonpayable",
      "type": "constructor"
    },
    {
      "anonymous": false,
      "inputs": [
        {
          "indexed": true,
          "internalType": "uint256",
          "name": "id",
          "type": "uint256"
        },
        {
          "indexed": true,
          "internalType": "address",
          "name": "nftContract",
          "type": "address"
        },
        {
          "indexed": true,
          "internalType": "uint256",
          "name": "tokenId",
          "type": "uint256"
        },
        {
          "indexed": false,
          "internalType": "address",
          "name": "seller",
          "type": "address"
        },
        {
          "indexed": false,
          "internalType": "address",
          "name": "buyer",
          "type": "address"
        },
        {
          "indexed": false,
          "internalType": "uint256",
          "name": "price",
          "type": "uint256"
        },
        {
          "indexed": false,
          "internalType": "enum NFTMarketplace.State",
          "name": "state",
          "type": "uint8"
        }
      ],
      "name": "MarketItemCreated",
      "type": "event"
    },
    {
      "anonymous": false,
      "inputs": [
        {
          "indexed": true,
          "internalType": "uint256",
          "name": "id",
          "type": "uint256"
        },
        {
          "indexed": true,
          "internalType": "address",
          "name": "nftContract",
          "type": "address"
        },
        {
          "indexed": true,
          "internalType": "uint256",
          "name": "tokenId",
          "type": "uint256"
        },
        {
          "indexed": false,
          "internalType": "address",
          "name": "seller",
          "type": "address"
        },
        {
          "indexed": false,
          "internalType": "address",
          "name": "buyer",
          "type": "address"
        },
        {
          "indexed": false,
          "internalType": "uint256",
          "name": "price",
          "type": "uint256"
        },
        {
          "indexed": false,
          "internalType": "enum NFTMarketplace.State",
          "name": "state",
          "type": "uint8"
        }
      ],
      "name": "MarketItemSold",
      "type": "event"
    },
    {
      "inputs": [
        {
          "internalType": "address",
          "name": "nftContract",
          "type": "address"
        },
        {
          "internalType": "uint256",
          "name": "tokenId",
          "type": "uint256"
        },
        {
          "internalType": "uint256",
          "name": "price",
          "type": "uint256"
        }
      ],
      "name": "createMarketItem",
      "outputs": [],
      "stateMutability": "payable",
      "type": "function"
    },
    {
      "inputs": [
        {
          "internalType": "address",
          "name": "nftContract",
          "type": "address"
        },
        {
          "internalType": "uint256",
          "name": "id",
          "type": "uint256"
        }
      ],
      "name": "createMarketSale",
      "outputs": [],
      "stateMutability": "payable",
      "type": "function"
    },
    {
      "inputs": [
        {
          "internalType": "uint256",
          "name": "itemId",
          "type": "uint256"
        }
      ],
      "name": "deleteMarketItem",
      "outputs": [],
      "stateMutability": "nonpayable",
      "type": "function"
    },
    {
      "inputs": [],
      "name": "fetchActiveItems",
      "outputs": [
        {
          "components": [
            {
              "internalType": "uint256",
              "name": "id",
              "type": "uint256"
            },
            {
              "internalType": "address",
              "name": "nftContract",
              "type": "address"
            },
            {
              "internalType": "uint256",
              "name": "tokenId",
              "type": "uint256"
            },
            {
              "internalType": "address payable",
              "name": "seller",
              "type": "address"
            },
            {
              "internalType": "address payable",
              "name": "buyer",
              "type": "address"
            },
            {
              "internalType": "uint256",
              "name": "price",
              "type": "uint256"
            },
            {
              "internalType": "enum NFTMarketplace.State",
              "name": "state",
              "type": "uint8"
            }
          ],
          "internalType": "struct NFTMarketplace.MarketItem[]",
          "name": "",
          "type": "tuple[]"
        }
      ],
      "stateMutability": "view",
      "type": "function"
    },
    {
      "inputs": [],
      "name": "fetchMyCreatedItems",
      "outputs": [
        {
          "components": [
            {
              "internalType": "uint256",
              "name": "id",
              "type": "uint256"
            },
            {
              "internalType": "address",
              "name": "nftContract",
              "type": "address"
            },
            {
              "internalType": "uint256",
              "name": "tokenId",
              "type": "uint256"
            },
            {
              "internalType": "address payable",
              "name": "seller",
              "type": "address"
            },
            {
              "internalType": "address payable",
              "name": "buyer",
              "type": "address"
            },
            {
              "internalType": "uint256",
              "name": "price",
              "type": "uint256"
            },
            {
              "internalType": "enum NFTMarketplace.State",
              "name": "state",
              "type": "uint8"
            }
          ],
          "internalType": "struct NFTMarketplace.MarketItem[]",
          "name": "",
          "type": "tuple[]"
        }
      ],
      "stateMutability": "view",
      "type": "function"
    },
    {
      "inputs": [],
      "name": "fetchMyPurchasedItems",
      "outputs": [
        {
          "components": [
            {
              "internalType": "uint256",
              "name": "id",
              "type": "uint256"
            },
            {
              "internalType": "address",
              "name": "nftContract",
              "type": "address"
            },
            {
              "internalType": "uint256",
              "name": "tokenId",
              "type": "uint256"
            },
            {
              "internalType": "address payable",
              "name": "seller",
              "type": "address"
            },
            {
              "internalType": "address payable",
              "name": "buyer",
              "type": "address"
            },
            {
              "internalType": "uint256",
              "name": "price",
              "type": "uint256"
            },
            {
              "internalType": "enum NFTMarketplace.State",
              "name": "state",
              "type": "uint8"
            }
          ],
          "internalType": "struct NFTMarketplace.MarketItem[]",
          "name": "",
          "type": "tuple[]"
        }
      ],
      "stateMutability": "view",
      "type": "function"
    },
    {
      "inputs": [],
      "name": "getListingFee",
      "outputs": [
        {
          "internalType": "uint256",
          "name": "",
          "type": "uint256"
        }
      ],
      "stateMutability": "view",
      "type": "function"
    },
    {
      "inputs": [],
      "name": "listingFee",
      "outputs": [
        {
          "internalType": "uint256",
          "name": "",
          "type": "uint256"
        }
      ],
      "stateMutability": "view",
      "type": "function"
    },
    {
      "inputs": [],
      "name": "marketowner",
      "outputs": [
        {
          "internalType": "address payable",
          "name": "",
          "type": "address"
        }
      ],
      "stateMutability": "view",
      "type": "function"
    }
  ],
  "bytecode": "0x60806040526658d15e1762800060045534801561001b57600080fd5b50600160008190555033600360006101000a81548173ffffffffffffffffffffffffffffffffffffffff021916908373ffffffffffffffffffffffffffffffffffffffff16021790555061218c806100746000396000f3fe6080604052600436106100865760003560e01c8063a9c0714511610059578063a9c0714514610128578063ab76ce1614610151578063b8fe6abe1461017c578063c23b139e146101a7578063ef8da9da146101c357610086565b8063332b386b1461008b57806358eb2df5146100b65780635e385b92146100d25780636a1b7ecc146100fd575b600080fd5b34801561009757600080fd5b506100a06101ee565b6040516100ad919061197d565b60405180910390f35b6100d060048036038101906100cb91906119fc565b6101ff565b005b3480156100de57600080fd5b506100e76105fa565b6040516100f49190611a5e565b60405180910390f35b34801561010957600080fd5b50610112610620565b60405161011f9190611a88565b60405180910390f35b34801561013457600080fd5b5061014f600480360381019061014a9190611aa3565b610626565b005b34801561015d57600080fd5b50610166610a5b565b604051610173919061197d565b60405180910390f35b34801561018857600080fd5b50610191610a6c565b60405161019e9190611a88565b60405180910390f35b6101c160048036038101906101bc9190611ad0565b610a76565b005b3480156101cf57600080fd5b506101d8610e82565b6040516101e5919061197d565b60405180910390f35b60606101fa6000610e93565b905090565b600260005403610244576040517f08c379a000000000000000000000000000000000000000000000000000000000815260040161023b90611b6d565b60405180910390fd5b60026000819055506000811161028f576040517f08c379a000000000000000000000000000000000000000000000000000000000815260040161028690611bd9565b60405180910390fd5b60045434146102d3576040517f08c379a00000000000000000000000000000000000000000000000000000000081526004016102ca90611c45565b60405180910390fd5b6102dd6001611410565b60006102e96001611426565b90506040518060e001604052808281526020018573ffffffffffffffffffffffffffffffffffffffff1681526020018481526020013373ffffffffffffffffffffffffffffffffffffffff168152602001600073ffffffffffffffffffffffffffffffffffffffff16815260200183815260200160006002811115610371576103706117f5565b5b815250600560008381526020019081526020016000206000820151816000015560208201518160010160006101000a81548173ffffffffffffffffffffffffffffffffffffffff021916908373ffffffffffffffffffffffffffffffffffffffff1602179055506040820151816002015560608201518160030160006101000a81548173ffffffffffffffffffffffffffffffffffffffff021916908373ffffffffffffffffffffffffffffffffffffffff16021790555060808201518160040160006101000a81548173ffffffffffffffffffffffffffffffffffffffff021916908373ffffffffffffffffffffffffffffffffffffffff16021790555060a0820151816005015560c08201518160060160006101000a81548160ff021916908360028111156104a5576104a46117f5565b5b02179055509050503073ffffffffffffffffffffffffffffffffffffffff168473ffffffffffffffffffffffffffffffffffffffff1663081812fc856040518263ffffffff1660e01b81526004016104fd9190611a88565b602060405180830381865afa15801561051a573d6000803e3d6000fd5b505050506040513d601f19601f8201168201806040525081019061053e9190611c7a565b73ffffffffffffffffffffffffffffffffffffffff1614610594576040517f08c379a000000000000000000000000000000000000000000000000000000000815260040161058b90611cf3565b60405180910390fd5b828473ffffffffffffffffffffffffffffffffffffffff16827fb0a8dcfc08f1150d20def3c46440be585f61cce1bdbb0fdf16bc597f471c6e703360008760006040516105e49493929190611d31565b60405180910390a4506001600081905550505050565b600360009054906101000a900473ffffffffffffffffffffffffffffffffffffffff1681565b60045481565b60026000540361066b576040517f08c379a000000000000000000000000000000000000000000000000000000000815260040161066290611b6d565b60405180910390fd5b600260008190555061067d6001611426565b8111156106bf576040517f08c379a00000000000000000000000000000000000000000000000000000000081526004016106b690611dc2565b60405180910390fd5b600060028111156106d3576106d26117f5565b5b6005600083815260200190815260200160002060060160009054906101000a900460ff166002811115610709576107086117f5565b5b14610749576040517f08c379a000000000000000000000000000000000000000000000000000000000815260040161074090611e2e565b60405180910390fd5b60006005600083815260200190815260200160002090503373ffffffffffffffffffffffffffffffffffffffff168160010160009054906101000a900473ffffffffffffffffffffffffffffffffffffffff1673ffffffffffffffffffffffffffffffffffffffff16636352211e83600201546040518263ffffffff1660e01b81526004016107d89190611a88565b602060405180830381865afa1580156107f5573d6000803e3d6000fd5b505050506040513d601f19601f820116820180604052508101906108199190611c7a565b73ffffffffffffffffffffffffffffffffffffffff161461086f576040517f08c379a000000000000000000000000000000000000000000000000000000000815260040161086690611e9a565b60405180910390fd5b3073ffffffffffffffffffffffffffffffffffffffff168160010160009054906101000a900473ffffffffffffffffffffffffffffffffffffffff1673ffffffffffffffffffffffffffffffffffffffff1663081812fc83600201546040518263ffffffff1660e01b81526004016108e79190611a88565b602060405180830381865afa158015610904573d6000803e3d6000fd5b505050506040513d601f19601f820116820180604052508101906109289190611c7a565b73ffffffffffffffffffffffffffffffffffffffff161461097e576040517f08c379a000000000000000000000000000000000000000000000000000000000815260040161097590611cf3565b60405180910390fd5b60028160060160006101000a81548160ff021916908360028111156109a6576109a56117f5565b5b021790555080600201548160010160009054906101000a900473ffffffffffffffffffffffffffffffffffffffff1673ffffffffffffffffffffffffffffffffffffffff16837f064a9702da2c4a0a9af4cabda06e4715203ed7b0b3bb67eca6d3168e1c519bff8460030160009054906101000a900473ffffffffffffffffffffffffffffffffffffffff166000806002604051610a479493929190611f54565b60405180910390a450600160008190555050565b6060610a676001610e93565b905090565b6000600454905090565b600260005403610abb576040517f08c379a0000000000000000000000000000000000000000000000000000000008152600401610ab290611b6d565b60405180910390fd5b60026000819055506000600560008381526020019081526020016000209050600081600501549050600082600201549050813414610b2e576040517f08c379a0000000000000000000000000000000000000000000000000000000008152600401610b2590611fe5565b60405180910390fd5b3073ffffffffffffffffffffffffffffffffffffffff168573ffffffffffffffffffffffffffffffffffffffff1663081812fc836040518263ffffffff1660e01b8152600401610b7e9190611a88565b602060405180830381865afa158015610b9b573d6000803e3d6000fd5b505050506040513d601f19601f82011682018060405250810190610bbf9190611c7a565b73ffffffffffffffffffffffffffffffffffffffff1614610c15576040517f08c379a0000000000000000000000000000000000000000000000000000000008152600401610c0c90611cf3565b60405180910390fd5b338360040160006101000a81548173ffffffffffffffffffffffffffffffffffffffff021916908373ffffffffffffffffffffffffffffffffffffffff16021790555060018360060160006101000a81548160ff02191690836002811115610c8057610c7f6117f5565b5b0217905550610c8f6002611410565b8473ffffffffffffffffffffffffffffffffffffffff166323b872dd8460030160009054906101000a900473ffffffffffffffffffffffffffffffffffffffff1633846040518463ffffffff1660e01b8152600401610cf093929190612005565b600060405180830381600087803b158015610d0a57600080fd5b505af1158015610d1e573d6000803e3d6000fd5b50505050600360009054906101000a900473ffffffffffffffffffffffffffffffffffffffff1673ffffffffffffffffffffffffffffffffffffffff166108fc6004549081150290604051600060405180830381858888f19350505050158015610d8c573d6000803e3d6000fd5b508260030160009054906101000a900473ffffffffffffffffffffffffffffffffffffffff1673ffffffffffffffffffffffffffffffffffffffff166108fc349081150290604051600060405180830381858888f19350505050158015610df7573d6000803e3d6000fd5b50808573ffffffffffffffffffffffffffffffffffffffff16857f064a9702da2c4a0a9af4cabda06e4715203ed7b0b3bb67eca6d3168e1c519bff8660030160009054906101000a900473ffffffffffffffffffffffffffffffffffffffff1633876001604051610e6b949392919061203c565b60405180910390a450505060016000819055505050565b6060610e8e6002610e93565b905090565b60606000610ea16001611426565b9050600080600190505b82811161105b57611034600560008381526020019081526020016000206040518060e0016040529081600082015481526020016001820160009054906101000a900473ffffffffffffffffffffffffffffffffffffffff1673ffffffffffffffffffffffffffffffffffffffff1673ffffffffffffffffffffffffffffffffffffffff168152602001600282015481526020016003820160009054906101000a900473ffffffffffffffffffffffffffffffffffffffff1673ffffffffffffffffffffffffffffffffffffffff1673ffffffffffffffffffffffffffffffffffffffff1681526020016004820160009054906101000a900473ffffffffffffffffffffffffffffffffffffffff1673ffffffffffffffffffffffffffffffffffffffff1673ffffffffffffffffffffffffffffffffffffffff168152602001600582015481526020016006820160009054906101000a900460ff166002811115611018576110176117f5565b5b600281111561102a576110296117f5565b5b8152505086611434565b15611048578180611044906120b0565b9250505b8080611053906120b0565b915050610eab565b506000808267ffffffffffffffff811115611079576110786120f8565b5b6040519080825280602002602001820160405280156110b257816020015b61109f6116bd565b8152602001906001900390816110975790505b5090506000600190505b84811161140357611245600560008381526020019081526020016000206040518060e0016040529081600082015481526020016001820160009054906101000a900473ffffffffffffffffffffffffffffffffffffffff1673ffffffffffffffffffffffffffffffffffffffff1673ffffffffffffffffffffffffffffffffffffffff168152602001600282015481526020016003820160009054906101000a900473ffffffffffffffffffffffffffffffffffffffff1673ffffffffffffffffffffffffffffffffffffffff1673ffffffffffffffffffffffffffffffffffffffff1681526020016004820160009054906101000a900473ffffffffffffffffffffffffffffffffffffffff1673ffffffffffffffffffffffffffffffffffffffff1673ffffffffffffffffffffffffffffffffffffffff168152602001600582015481526020016006820160009054906101000a900460ff166002811115611229576112286117f5565b5b600281111561123b5761123a6117f5565b5b8152505088611434565b156113f057600560008281526020019081526020016000206040518060e0016040529081600082015481526020016001820160009054906101000a900473ffffffffffffffffffffffffffffffffffffffff1673ffffffffffffffffffffffffffffffffffffffff1673ffffffffffffffffffffffffffffffffffffffff168152602001600282015481526020016003820160009054906101000a900473ffffffffffffffffffffffffffffffffffffffff1673ffffffffffffffffffffffffffffffffffffffff1673ffffffffffffffffffffffffffffffffffffffff1681526020016004820160009054906101000a900473ffffffffffffffffffffffffffffffffffffffff1673ffffffffffffffffffffffffffffffffffffffff1673ffffffffffffffffffffffffffffffffffffffff168152602001600582015481526020016006820160009054906101000a900460ff1660028111156113ad576113ac6117f5565b5b60028111156113bf576113be6117f5565b5b815250508284815181106113d6576113d5612127565b5b602002602001018190525082806113ec906120b0565b9350505b80806113fb906120b0565b9150506110bc565b5080945050505050919050565b6001816000016000828254019250508190555050565b600081600001549050919050565b6000600280811115611449576114486117f5565b5b82600281111561145c5761145b6117f5565b5b036114dd573373ffffffffffffffffffffffffffffffffffffffff16836060015173ffffffffffffffffffffffffffffffffffffffff161480156114c857506002808111156114ae576114ad6117f5565b5b8360c0015160028111156114c5576114c46117f5565b5b14155b6114d35760006114d6565b60015b90506116b7565b600160028111156114f1576114f06117f5565b5b826002811115611504576115036117f5565b5b03611551573373ffffffffffffffffffffffffffffffffffffffff16836080015173ffffffffffffffffffffffffffffffffffffffff161461154757600061154a565b60015b90506116b7565b60006002811115611565576115646117f5565b5b826002811115611578576115776117f5565b5b036116b257600073ffffffffffffffffffffffffffffffffffffffff16836080015173ffffffffffffffffffffffffffffffffffffffff161480156115e55750600060028111156115cc576115cb6117f5565b5b8360c0015160028111156115e3576115e26117f5565b5b145b801561169d57503073ffffffffffffffffffffffffffffffffffffffff16836020015173ffffffffffffffffffffffffffffffffffffffff1663081812fc85604001516040518263ffffffff1660e01b81526004016116449190611a88565b602060405180830381865afa158015611661573d6000803e3d6000fd5b505050506040513d601f19601f820116820180604052508101906116859190611c7a565b73ffffffffffffffffffffffffffffffffffffffff16145b6116a85760006116ab565b60015b90506116b7565b600090505b92915050565b6040518060e0016040528060008152602001600073ffffffffffffffffffffffffffffffffffffffff16815260200160008152602001600073ffffffffffffffffffffffffffffffffffffffff168152602001600073ffffffffffffffffffffffffffffffffffffffff1681526020016000815260200160006002811115611748576117476117f5565b5b81525090565b600081519050919050565b600082825260208201905092915050565b6000819050602082019050919050565b6000819050919050565b61178d8161177a565b82525050565b600073ffffffffffffffffffffffffffffffffffffffff82169050919050565b60006117be82611793565b9050919050565b6117ce816117b3565b82525050565b60006117df82611793565b9050919050565b6117ef816117d4565b82525050565b7f4e487b7100000000000000000000000000000000000000000000000000000000600052602160045260246000fd5b60038110611835576118346117f5565b5b50565b600081905061184682611824565b919050565b600061185682611838565b9050919050565b6118668161184b565b82525050565b60e0820160008201516118826000850182611784565b50602082015161189560208501826117c5565b5060408201516118a86040850182611784565b5060608201516118bb60608501826117e6565b5060808201516118ce60808501826117e6565b5060a08201516118e160a0850182611784565b5060c08201516118f460c085018261185d565b50505050565b6000611906838361186c565b60e08301905092915050565b6000602082019050919050565b600061192a8261174e565b6119348185611759565b935061193f8361176a565b8060005b8381101561197057815161195788826118fa565b975061196283611912565b925050600181019050611943565b5085935050505092915050565b60006020820190508181036000830152611997818461191f565b905092915050565b600080fd5b6119ad816117b3565b81146119b857600080fd5b50565b6000813590506119ca816119a4565b92915050565b6119d98161177a565b81146119e457600080fd5b50565b6000813590506119f6816119d0565b92915050565b600080600060608486031215611a1557611a1461199f565b5b6000611a23868287016119bb565b9350506020611a34868287016119e7565b9250506040611a45868287016119e7565b9150509250925092565b611a58816117d4565b82525050565b6000602082019050611a736000830184611a4f565b92915050565b611a828161177a565b82525050565b6000602082019050611a9d6000830184611a79565b92915050565b600060208284031215611ab957611ab861199f565b5b6000611ac7848285016119e7565b91505092915050565b60008060408385031215611ae757611ae661199f565b5b6000611af5858286016119bb565b9250506020611b06858286016119e7565b9150509250929050565b600082825260208201905092915050565b7f5265656e7472616e637947756172643a207265656e7472616e742063616c6c00600082015250565b6000611b57601f83611b10565b9150611b6282611b21565b602082019050919050565b60006020820190508181036000830152611b8681611b4a565b9050919050565b7f5072696365206d757374206265206174206c6561737420312077656900000000600082015250565b6000611bc3601c83611b10565b9150611bce82611b8d565b602082019050919050565b60006020820190508181036000830152611bf281611bb6565b9050919050565b7f466565206d75737420626520657175616c20746f206c697374696e6720666565600082015250565b6000611c2f602083611b10565b9150611c3a82611bf9565b602082019050919050565b60006020820190508181036000830152611c5e81611c22565b9050919050565b600081519050611c74816119a4565b92915050565b600060208284031215611c9057611c8f61199f565b5b6000611c9e84828501611c65565b91505092915050565b7f4e4654206d75737420626520617070726f76656420746f206d61726b65740000600082015250565b6000611cdd601e83611b10565b9150611ce882611ca7565b602082019050919050565b60006020820190508181036000830152611d0c81611cd0565b9050919050565b611d1c816117b3565b82525050565b611d2b8161184b565b82525050565b6000608082019050611d466000830187611d13565b611d536020830186611d13565b611d606040830185611a79565b611d6d6060830184611d22565b95945050505050565b7f6964206d757374203c3d206974656d20636f756e740000000000000000000000600082015250565b6000611dac601583611b10565b9150611db782611d76565b602082019050919050565b60006020820190508181036000830152611ddb81611d9f565b9050919050565b7f6974656d206d757374206265206f6e206d61726b657400000000000000000000600082015250565b6000611e18601683611b10565b9150611e2382611de2565b602082019050919050565b60006020820190508181036000830152611e4781611e0b565b9050919050565b7f6d75737420626520746865206f776e6572000000000000000000000000000000600082015250565b6000611e84601183611b10565b9150611e8f82611e4e565b602082019050919050565b60006020820190508181036000830152611eb381611e77565b9050919050565b6000819050919050565b6000611edf611eda611ed584611793565b611eba565b611793565b9050919050565b6000611ef182611ec4565b9050919050565b6000611f0382611ee6565b9050919050565b611f1381611ef8565b82525050565b6000819050919050565b6000611f3e611f39611f3484611f19565b611eba565b61177a565b9050919050565b611f4e81611f23565b82525050565b6000608082019050611f696000830187611f0a565b611f766020830186611d13565b611f836040830185611f45565b611f906060830184611d22565b95945050505050565b7f506c65617365207375626d6974207468652061736b696e672070726963650000600082015250565b6000611fcf601e83611b10565b9150611fda82611f99565b602082019050919050565b60006020820190508181036000830152611ffe81611fc2565b9050919050565b600060608201905061201a6000830186611f0a565b6120276020830185611d13565b6120346040830184611a79565b949350505050565b60006080820190506120516000830187611f0a565b61205e6020830186611d13565b61206b6040830185611a79565b6120786060830184611d22565b95945050505050565b7f4e487b7100000000000000000000000000000000000000000000000000000000600052601160045260246000fd5b60006120bb8261177a565b91507fffffffffffffffffffffffffffffffffffffffffffffffffffffffffffffffff82036120ed576120ec612081565b5b600182019050919050565b7f4e487b7100000000000000000000000000000000000000000000000000000000600052604160045260246000fd5b7f4e487b7100000000000000000000000000000000000000000000000000000000600052603260045260246000fdfea264697066735822122015487c4d2dec0731970b2748c73c2d9f2bd870b2902f133a6b5da587a382220c64736f6c63430008110033",
  "linkReferences": {},
  "deployedLinkReferences": {}
}