{
  "_format": "hh-sol-artifact-1",
  "contractName": "NFTMarketplace",
  "sourceName": "contracts/NFTMarketplace.sol",
  "abi": [
    {
      "inputs": [],
      "stateMutability": "nonpayable",
      "type": "constructor"
    },
    {
      "anonymous": false,
      "inputs": [
        {
          "indexed": true,
          "internalType": "uint256",
          "name": "id",
          "type": "uint256"
        },
        {
          "indexed": true,
          "internalType": "address",
          "name": "nftContract",
          "type": "address"
        },
        {
          "indexed": true,
          "internalType": "uint256",
          "name": "tokenId",
          "type": "uint256"
        },
        {
          "indexed": false,
          "internalType": "address",
          "name": "seller",
          "type": "address"
        },
        {
          "indexed": false,
          "internalType": "address",
          "name": "buyer",
          "type": "address"
        },
        {
          "indexed": false,
          "internalType": "uint256",
          "name": "price",
          "type": "uint256"
        },
        {
          "indexed": false,
          "internalType": "enum NFTMarketplace.State",
          "name": "state",
          "type": "uint8"
        }
      ],
      "name": "MarketItemCreated",
      "type": "event"
    },
    {
      "anonymous": false,
      "inputs": [
        {
          "indexed": true,
          "internalType": "uint256",
          "name": "id",
          "type": "uint256"
        },
        {
          "indexed": true,
          "internalType": "address",
          "name": "nftContract",
          "type": "address"
        },
        {
          "indexed": true,
          "internalType": "uint256",
          "name": "tokenId",
          "type": "uint256"
        },
        {
          "indexed": false,
          "internalType": "address",
          "name": "seller",
          "type": "address"
        },
        {
          "indexed": false,
          "internalType": "address",
          "name": "buyer",
          "type": "address"
        },
        {
          "indexed": false,
          "internalType": "uint256",
          "name": "price",
          "type": "uint256"
        },
        {
          "indexed": false,
          "internalType": "enum NFTMarketplace.State",
          "name": "state",
          "type": "uint8"
        }
      ],
      "name": "MarketItemSold",
      "type": "event"
    },
    {
      "anonymous": false,
      "inputs": [
        {
          "indexed": true,
          "internalType": "uint256",
          "name": "id",
          "type": "uint256"
        },
        {
          "indexed": true,
          "internalType": "address",
          "name": "nftContract",
          "type": "address"
        },
        {
          "indexed": true,
          "internalType": "uint256",
          "name": "tokenId",
          "type": "uint256"
        },
        {
          "indexed": false,
          "internalType": "address",
          "name": "seller",
          "type": "address"
        },
        {
          "indexed": false,
          "internalType": "address",
          "name": "buyer",
          "type": "address"
        },
        {
          "indexed": false,
          "internalType": "uint256",
          "name": "price",
          "type": "uint256"
        },
        {
          "indexed": false,
          "internalType": "enum NFTMarketplace.State",
          "name": "state",
          "type": "uint8"
        }
      ],
      "name": "MarketItemUsed",
      "type": "event"
    },
    {
      "inputs": [
        {
          "internalType": "address",
          "name": "nftContract",
          "type": "address"
        },
        {
          "internalType": "uint256",
          "name": "tokenId",
          "type": "uint256"
        },
        {
          "internalType": "uint256",
          "name": "price",
          "type": "uint256"
        }
      ],
      "name": "createMarketItem",
      "outputs": [],
      "stateMutability": "payable",
      "type": "function"
    },
    {
      "inputs": [
        {
          "internalType": "address",
          "name": "nftContract",
          "type": "address"
        },
        {
          "internalType": "uint256",
          "name": "id",
          "type": "uint256"
        }
      ],
      "name": "createMarketSale",
      "outputs": [],
      "stateMutability": "payable",
      "type": "function"
    },
    {
      "inputs": [
        {
          "internalType": "uint256",
          "name": "itemId",
          "type": "uint256"
        }
      ],
      "name": "deleteMarketItem",
      "outputs": [],
      "stateMutability": "nonpayable",
      "type": "function"
    },
    {
      "inputs": [],
      "name": "fetchActiveItems",
      "outputs": [
        {
          "components": [
            {
              "internalType": "uint256",
              "name": "id",
              "type": "uint256"
            },
            {
              "internalType": "address",
              "name": "nftContract",
              "type": "address"
            },
            {
              "internalType": "uint256",
              "name": "tokenId",
              "type": "uint256"
            },
            {
              "internalType": "address payable",
              "name": "seller",
              "type": "address"
            },
            {
              "internalType": "address payable",
              "name": "buyer",
              "type": "address"
            },
            {
              "internalType": "uint256",
              "name": "price",
              "type": "uint256"
            },
            {
              "internalType": "enum NFTMarketplace.State",
              "name": "state",
              "type": "uint8"
            }
          ],
          "internalType": "struct NFTMarketplace.MarketItem[]",
          "name": "",
          "type": "tuple[]"
        }
      ],
      "stateMutability": "view",
      "type": "function"
    },
    {
      "inputs": [],
      "name": "fetchMyCreatedItems",
      "outputs": [
        {
          "components": [
            {
              "internalType": "uint256",
              "name": "id",
              "type": "uint256"
            },
            {
              "internalType": "address",
              "name": "nftContract",
              "type": "address"
            },
            {
              "internalType": "uint256",
              "name": "tokenId",
              "type": "uint256"
            },
            {
              "internalType": "address payable",
              "name": "seller",
              "type": "address"
            },
            {
              "internalType": "address payable",
              "name": "buyer",
              "type": "address"
            },
            {
              "internalType": "uint256",
              "name": "price",
              "type": "uint256"
            },
            {
              "internalType": "enum NFTMarketplace.State",
              "name": "state",
              "type": "uint8"
            }
          ],
          "internalType": "struct NFTMarketplace.MarketItem[]",
          "name": "",
          "type": "tuple[]"
        }
      ],
      "stateMutability": "view",
      "type": "function"
    },
    {
      "inputs": [],
      "name": "fetchMyPurchasedItems",
      "outputs": [
        {
          "components": [
            {
              "internalType": "uint256",
              "name": "id",
              "type": "uint256"
            },
            {
              "internalType": "address",
              "name": "nftContract",
              "type": "address"
            },
            {
              "internalType": "uint256",
              "name": "tokenId",
              "type": "uint256"
            },
            {
              "internalType": "address payable",
              "name": "seller",
              "type": "address"
            },
            {
              "internalType": "address payable",
              "name": "buyer",
              "type": "address"
            },
            {
              "internalType": "uint256",
              "name": "price",
              "type": "uint256"
            },
            {
              "internalType": "enum NFTMarketplace.State",
              "name": "state",
              "type": "uint8"
            }
          ],
          "internalType": "struct NFTMarketplace.MarketItem[]",
          "name": "",
          "type": "tuple[]"
        }
      ],
      "stateMutability": "view",
      "type": "function"
    },
    {
      "inputs": [],
      "name": "fetchMyUsedItems",
      "outputs": [
        {
          "components": [
            {
              "internalType": "uint256",
              "name": "id",
              "type": "uint256"
            },
            {
              "internalType": "address",
              "name": "nftContract",
              "type": "address"
            },
            {
              "internalType": "uint256",
              "name": "tokenId",
              "type": "uint256"
            },
            {
              "internalType": "address payable",
              "name": "seller",
              "type": "address"
            },
            {
              "internalType": "address payable",
              "name": "buyer",
              "type": "address"
            },
            {
              "internalType": "uint256",
              "name": "price",
              "type": "uint256"
            },
            {
              "internalType": "enum NFTMarketplace.State",
              "name": "state",
              "type": "uint8"
            }
          ],
          "internalType": "struct NFTMarketplace.MarketItem[]",
          "name": "",
          "type": "tuple[]"
        }
      ],
      "stateMutability": "view",
      "type": "function"
    },
    {
      "inputs": [],
      "name": "getListingFee",
      "outputs": [
        {
          "internalType": "uint256",
          "name": "",
          "type": "uint256"
        }
      ],
      "stateMutability": "view",
      "type": "function"
    },
    {
      "inputs": [],
      "name": "listingFee",
      "outputs": [
        {
          "internalType": "uint256",
          "name": "",
          "type": "uint256"
        }
      ],
      "stateMutability": "view",
      "type": "function"
    },
    {
      "inputs": [],
      "name": "marketowner",
      "outputs": [
        {
          "internalType": "address payable",
          "name": "",
          "type": "address"
        }
      ],
      "stateMutability": "view",
      "type": "function"
    },
    {
      "inputs": [
        {
          "internalType": "uint256",
          "name": "itemId",
          "type": "uint256"
        }
      ],
      "name": "usedMarketItem",
      "outputs": [],
      "stateMutability": "nonpayable",
      "type": "function"
    }
  ],
  "bytecode": "0x60806040526658d15e1762800060045534801561001b57600080fd5b50600160008190555033600360006101000a81548173ffffffffffffffffffffffffffffffffffffffff021916908373ffffffffffffffffffffffffffffffffffffffff160217905550612640806100746000396000f3fe60806040526004361061009c5760003560e01c80638bb9acc2116100645780638bb9acc214610169578063a9c0714514610192578063ab76ce16146101bb578063b8fe6abe146101e6578063c23b139e14610211578063ef8da9da1461022d5761009c565b8063332b386b146100a157806358eb2df5146100cc5780635e385b92146100e85780636a1b7ecc1461011357806377fd98af1461013e575b600080fd5b3480156100ad57600080fd5b506100b6610258565b6040516100c39190611e31565b60405180910390f35b6100e660048036038101906100e19190611eb0565b610269565b005b3480156100f457600080fd5b506100fd610664565b60405161010a9190611f12565b60405180910390f35b34801561011f57600080fd5b5061012861068a565b6040516101359190611f3c565b60405180910390f35b34801561014a57600080fd5b50610153610690565b6040516101609190611e31565b60405180910390f35b34801561017557600080fd5b50610190600480360381019061018b9190611f57565b6106a1565b005b34801561019e57600080fd5b506101b960048036038101906101b49190611f57565b6109ca565b005b3480156101c757600080fd5b506101d0610dff565b6040516101dd9190611e31565b60405180910390f35b3480156101f257600080fd5b506101fb610e10565b6040516102089190611f3c565b60405180910390f35b61022b60048036038101906102269190611f84565b610e1a565b005b34801561023957600080fd5b50610242611226565b60405161024f9190611e31565b60405180910390f35b60606102646000611237565b905090565b6002600054036102ae576040517f08c379a00000000000000000000000000000000000000000000000000000000081526004016102a590612021565b60405180910390fd5b6002600081905550600081116102f9576040517f08c379a00000000000000000000000000000000000000000000000000000000081526004016102f09061208d565b60405180910390fd5b600454341461033d576040517f08c379a0000000000000000000000000000000000000000000000000000000008152600401610334906120f9565b60405180910390fd5b61034760016117b4565b600061035360016117ca565b90506040518060e001604052808281526020018573ffffffffffffffffffffffffffffffffffffffff1681526020018481526020013373ffffffffffffffffffffffffffffffffffffffff168152602001600073ffffffffffffffffffffffffffffffffffffffff168152602001838152602001600060038111156103db576103da611ca9565b5b815250600560008381526020019081526020016000206000820151816000015560208201518160010160006101000a81548173ffffffffffffffffffffffffffffffffffffffff021916908373ffffffffffffffffffffffffffffffffffffffff1602179055506040820151816002015560608201518160030160006101000a81548173ffffffffffffffffffffffffffffffffffffffff021916908373ffffffffffffffffffffffffffffffffffffffff16021790555060808201518160040160006101000a81548173ffffffffffffffffffffffffffffffffffffffff021916908373ffffffffffffffffffffffffffffffffffffffff16021790555060a0820151816005015560c08201518160060160006101000a81548160ff0219169083600381111561050f5761050e611ca9565b5b02179055509050503073ffffffffffffffffffffffffffffffffffffffff168473ffffffffffffffffffffffffffffffffffffffff1663081812fc856040518263ffffffff1660e01b81526004016105679190611f3c565b602060405180830381865afa158015610584573d6000803e3d6000fd5b505050506040513d601f19601f820116820180604052508101906105a8919061212e565b73ffffffffffffffffffffffffffffffffffffffff16146105fe576040517f08c379a00000000000000000000000000000000000000000000000000000000081526004016105f5906121a7565b60405180910390fd5b828473ffffffffffffffffffffffffffffffffffffffff16827fb0a8dcfc08f1150d20def3c46440be585f61cce1bdbb0fdf16bc597f471c6e7033600087600060405161064e94939291906121e5565b60405180910390a4506001600081905550505050565b600360009054906101000a900473ffffffffffffffffffffffffffffffffffffffff1681565b60045481565b606061069c6003611237565b905090565b6002600054036106e6576040517f08c379a00000000000000000000000000000000000000000000000000000000081526004016106dd90612021565b60405180910390fd5b60026000819055506106f860016117ca565b81111561073a576040517f08c379a000000000000000000000000000000000000000000000000000000000815260040161073190612276565b60405180910390fd5b6001600381111561074e5761074d611ca9565b5b6005600083815260200190815260200160002060060160009054906101000a900460ff16600381111561078457610783611ca9565b5b146107c4576040517f08c379a00000000000000000000000000000000000000000000000000000000081526004016107bb906122e2565b60405180910390fd5b60006005600083815260200190815260200160002090503373ffffffffffffffffffffffffffffffffffffffff168160010160009054906101000a900473ffffffffffffffffffffffffffffffffffffffff1673ffffffffffffffffffffffffffffffffffffffff16636352211e83600201546040518263ffffffff1660e01b81526004016108539190611f3c565b602060405180830381865afa158015610870573d6000803e3d6000fd5b505050506040513d601f19601f82011682018060405250810190610894919061212e565b73ffffffffffffffffffffffffffffffffffffffff16146108ea576040517f08c379a00000000000000000000000000000000000000000000000000000000081526004016108e19061234e565b60405180910390fd5b60038160060160006101000a81548160ff0219169083600381111561091257610911611ca9565b5b021790555080600201548160010160009054906101000a900473ffffffffffffffffffffffffffffffffffffffff1673ffffffffffffffffffffffffffffffffffffffff16837f18bfb3f32043d18dbb474beeb0033699d8cf5bba2e77d681fe8cec78cf5717ae8460030160009054906101000a900473ffffffffffffffffffffffffffffffffffffffff1633866005015460036040516109b694939291906123cd565b60405180910390a450600160008190555050565b600260005403610a0f576040517f08c379a0000000000000000000000000000000000000000000000000000000008152600401610a0690612021565b60405180910390fd5b6002600081905550610a2160016117ca565b811115610a63576040517f08c379a0000000000000000000000000000000000000000000000000000000008152600401610a5a90612276565b60405180910390fd5b60006003811115610a7757610a76611ca9565b5b6005600083815260200190815260200160002060060160009054906101000a900460ff166003811115610aad57610aac611ca9565b5b14610aed576040517f08c379a0000000000000000000000000000000000000000000000000000000008152600401610ae4906122e2565b60405180910390fd5b60006005600083815260200190815260200160002090503373ffffffffffffffffffffffffffffffffffffffff168160010160009054906101000a900473ffffffffffffffffffffffffffffffffffffffff1673ffffffffffffffffffffffffffffffffffffffff16636352211e83600201546040518263ffffffff1660e01b8152600401610b7c9190611f3c565b602060405180830381865afa158015610b99573d6000803e3d6000fd5b505050506040513d601f19601f82011682018060405250810190610bbd919061212e565b73ffffffffffffffffffffffffffffffffffffffff1614610c13576040517f08c379a0000000000000000000000000000000000000000000000000000000008152600401610c0a9061234e565b60405180910390fd5b3073ffffffffffffffffffffffffffffffffffffffff168160010160009054906101000a900473ffffffffffffffffffffffffffffffffffffffff1673ffffffffffffffffffffffffffffffffffffffff1663081812fc83600201546040518263ffffffff1660e01b8152600401610c8b9190611f3c565b602060405180830381865afa158015610ca8573d6000803e3d6000fd5b505050506040513d601f19601f82011682018060405250810190610ccc919061212e565b73ffffffffffffffffffffffffffffffffffffffff1614610d22576040517f08c379a0000000000000000000000000000000000000000000000000000000008152600401610d19906121a7565b60405180910390fd5b60028160060160006101000a81548160ff02191690836003811115610d4a57610d49611ca9565b5b021790555080600201548160010160009054906101000a900473ffffffffffffffffffffffffffffffffffffffff1673ffffffffffffffffffffffffffffffffffffffff16837f064a9702da2c4a0a9af4cabda06e4715203ed7b0b3bb67eca6d3168e1c519bff8460030160009054906101000a900473ffffffffffffffffffffffffffffffffffffffff166000806002604051610deb949392919061244d565b60405180910390a450600160008190555050565b6060610e0b6001611237565b905090565b6000600454905090565b600260005403610e5f576040517f08c379a0000000000000000000000000000000000000000000000000000000008152600401610e5690612021565b60405180910390fd5b60026000819055506000600560008381526020019081526020016000209050600081600501549050600082600201549050813414610ed2576040517f08c379a0000000000000000000000000000000000000000000000000000000008152600401610ec9906124de565b60405180910390fd5b3073ffffffffffffffffffffffffffffffffffffffff168573ffffffffffffffffffffffffffffffffffffffff1663081812fc836040518263ffffffff1660e01b8152600401610f229190611f3c565b602060405180830381865afa158015610f3f573d6000803e3d6000fd5b505050506040513d601f19601f82011682018060405250810190610f63919061212e565b73ffffffffffffffffffffffffffffffffffffffff1614610fb9576040517f08c379a0000000000000000000000000000000000000000000000000000000008152600401610fb0906121a7565b60405180910390fd5b338360040160006101000a81548173ffffffffffffffffffffffffffffffffffffffff021916908373ffffffffffffffffffffffffffffffffffffffff16021790555060018360060160006101000a81548160ff0219169083600381111561102457611023611ca9565b5b021790555061103360026117b4565b8473ffffffffffffffffffffffffffffffffffffffff166323b872dd8460030160009054906101000a900473ffffffffffffffffffffffffffffffffffffffff1633846040518463ffffffff1660e01b8152600401611094939291906124fe565b600060405180830381600087803b1580156110ae57600080fd5b505af11580156110c2573d6000803e3d6000fd5b50505050600360009054906101000a900473ffffffffffffffffffffffffffffffffffffffff1673ffffffffffffffffffffffffffffffffffffffff166108fc6004549081150290604051600060405180830381858888f19350505050158015611130573d6000803e3d6000fd5b508260030160009054906101000a900473ffffffffffffffffffffffffffffffffffffffff1673ffffffffffffffffffffffffffffffffffffffff166108fc349081150290604051600060405180830381858888f1935050505015801561119b573d6000803e3d6000fd5b50808573ffffffffffffffffffffffffffffffffffffffff16857f064a9702da2c4a0a9af4cabda06e4715203ed7b0b3bb67eca6d3168e1c519bff8660030160009054906101000a900473ffffffffffffffffffffffffffffffffffffffff163387600160405161120f94939291906123cd565b60405180910390a450505060016000819055505050565b60606112326002611237565b905090565b6060600061124560016117ca565b9050600080600190505b8281116113ff576113d8600560008381526020019081526020016000206040518060e0016040529081600082015481526020016001820160009054906101000a900473ffffffffffffffffffffffffffffffffffffffff1673ffffffffffffffffffffffffffffffffffffffff1673ffffffffffffffffffffffffffffffffffffffff168152602001600282015481526020016003820160009054906101000a900473ffffffffffffffffffffffffffffffffffffffff1673ffffffffffffffffffffffffffffffffffffffff1673ffffffffffffffffffffffffffffffffffffffff1681526020016004820160009054906101000a900473ffffffffffffffffffffffffffffffffffffffff1673ffffffffffffffffffffffffffffffffffffffff1673ffffffffffffffffffffffffffffffffffffffff168152602001600582015481526020016006820160009054906101000a900460ff1660038111156113bc576113bb611ca9565b5b60038111156113ce576113cd611ca9565b5b81525050866117d8565b156113ec5781806113e890612564565b9250505b80806113f790612564565b91505061124f565b506000808267ffffffffffffffff81111561141d5761141c6125ac565b5b60405190808252806020026020018201604052801561145657816020015b611443611b71565b81526020019060019003908161143b5790505b5090506000600190505b8481116117a7576115e9600560008381526020019081526020016000206040518060e0016040529081600082015481526020016001820160009054906101000a900473ffffffffffffffffffffffffffffffffffffffff1673ffffffffffffffffffffffffffffffffffffffff1673ffffffffffffffffffffffffffffffffffffffff168152602001600282015481526020016003820160009054906101000a900473ffffffffffffffffffffffffffffffffffffffff1673ffffffffffffffffffffffffffffffffffffffff1673ffffffffffffffffffffffffffffffffffffffff1681526020016004820160009054906101000a900473ffffffffffffffffffffffffffffffffffffffff1673ffffffffffffffffffffffffffffffffffffffff1673ffffffffffffffffffffffffffffffffffffffff168152602001600582015481526020016006820160009054906101000a900460ff1660038111156115cd576115cc611ca9565b5b60038111156115df576115de611ca9565b5b81525050886117d8565b1561179457600560008281526020019081526020016000206040518060e0016040529081600082015481526020016001820160009054906101000a900473ffffffffffffffffffffffffffffffffffffffff1673ffffffffffffffffffffffffffffffffffffffff1673ffffffffffffffffffffffffffffffffffffffff168152602001600282015481526020016003820160009054906101000a900473ffffffffffffffffffffffffffffffffffffffff1673ffffffffffffffffffffffffffffffffffffffff1673ffffffffffffffffffffffffffffffffffffffff1681526020016004820160009054906101000a900473ffffffffffffffffffffffffffffffffffffffff1673ffffffffffffffffffffffffffffffffffffffff1673ffffffffffffffffffffffffffffffffffffffff168152602001600582015481526020016006820160009054906101000a900460ff16600381111561175157611750611ca9565b5b600381111561176357611762611ca9565b5b8152505082848151811061177a576117796125db565b5b6020026020010181905250828061179090612564565b9350505b808061179f90612564565b915050611460565b5080945050505050919050565b6001816000016000828254019250508190555050565b600081600001549050919050565b6000600260038111156117ee576117ed611ca9565b5b82600381111561180157611800611ca9565b5b03611883573373ffffffffffffffffffffffffffffffffffffffff16836060015173ffffffffffffffffffffffffffffffffffffffff1614801561186e57506002600381111561185457611853611ca9565b5b8360c00151600381111561186b5761186a611ca9565b5b14155b61187957600061187c565b60015b9050611b6b565b6001600381111561189757611896611ca9565b5b8260038111156118aa576118a9611ca9565b5b0361195f573373ffffffffffffffffffffffffffffffffffffffff16836080015173ffffffffffffffffffffffffffffffffffffffff1614801561191657506003808111156118fc576118fb611ca9565b5b8360c00151600381111561191357611912611ca9565b5b14155b801561194a57506001600381111561193157611930611ca9565b5b8360c00151600381111561194857611947611ca9565b5b145b611955576000611958565b60015b9050611b6b565b6000600381111561197357611972611ca9565b5b82600381111561198657611985611ca9565b5b03611ac057600073ffffffffffffffffffffffffffffffffffffffff16836080015173ffffffffffffffffffffffffffffffffffffffff161480156119f35750600060038111156119da576119d9611ca9565b5b8360c0015160038111156119f1576119f0611ca9565b5b145b8015611aab57503073ffffffffffffffffffffffffffffffffffffffff16836020015173ffffffffffffffffffffffffffffffffffffffff1663081812fc85604001516040518263ffffffff1660e01b8152600401611a529190611f3c565b602060405180830381865afa158015611a6f573d6000803e3d6000fd5b505050506040513d601f19601f82011682018060405250810190611a93919061212e565b73ffffffffffffffffffffffffffffffffffffffff16145b611ab6576000611ab9565b60015b9050611b6b565b600380811115611ad357611ad2611ca9565b5b826003811115611ae657611ae5611ca9565b5b03611b66573373ffffffffffffffffffffffffffffffffffffffff16836080015173ffffffffffffffffffffffffffffffffffffffff16148015611b515750600380811115611b3857611b37611ca9565b5b8360c001516003811115611b4f57611b4e611ca9565b5b145b611b5c576000611b5f565b60015b9050611b6b565b600090505b92915050565b6040518060e0016040528060008152602001600073ffffffffffffffffffffffffffffffffffffffff16815260200160008152602001600073ffffffffffffffffffffffffffffffffffffffff168152602001600073ffffffffffffffffffffffffffffffffffffffff1681526020016000815260200160006003811115611bfc57611bfb611ca9565b5b81525090565b600081519050919050565b600082825260208201905092915050565b6000819050602082019050919050565b6000819050919050565b611c4181611c2e565b82525050565b600073ffffffffffffffffffffffffffffffffffffffff82169050919050565b6000611c7282611c47565b9050919050565b611c8281611c67565b82525050565b6000611c9382611c47565b9050919050565b611ca381611c88565b82525050565b7f4e487b7100000000000000000000000000000000000000000000000000000000600052602160045260246000fd5b60048110611ce957611ce8611ca9565b5b50565b6000819050611cfa82611cd8565b919050565b6000611d0a82611cec565b9050919050565b611d1a81611cff565b82525050565b60e082016000820151611d366000850182611c38565b506020820151611d496020850182611c79565b506040820151611d5c6040850182611c38565b506060820151611d6f6060850182611c9a565b506080820151611d826080850182611c9a565b5060a0820151611d9560a0850182611c38565b5060c0820151611da860c0850182611d11565b50505050565b6000611dba8383611d20565b60e08301905092915050565b6000602082019050919050565b6000611dde82611c02565b611de88185611c0d565b9350611df383611c1e565b8060005b83811015611e24578151611e0b8882611dae565b9750611e1683611dc6565b925050600181019050611df7565b5085935050505092915050565b60006020820190508181036000830152611e4b8184611dd3565b905092915050565b600080fd5b611e6181611c67565b8114611e6c57600080fd5b50565b600081359050611e7e81611e58565b92915050565b611e8d81611c2e565b8114611e9857600080fd5b50565b600081359050611eaa81611e84565b92915050565b600080600060608486031215611ec957611ec8611e53565b5b6000611ed786828701611e6f565b9350506020611ee886828701611e9b565b9250506040611ef986828701611e9b565b9150509250925092565b611f0c81611c88565b82525050565b6000602082019050611f276000830184611f03565b92915050565b611f3681611c2e565b82525050565b6000602082019050611f516000830184611f2d565b92915050565b600060208284031215611f6d57611f6c611e53565b5b6000611f7b84828501611e9b565b91505092915050565b60008060408385031215611f9b57611f9a611e53565b5b6000611fa985828601611e6f565b9250506020611fba85828601611e9b565b9150509250929050565b600082825260208201905092915050565b7f5265656e7472616e637947756172643a207265656e7472616e742063616c6c00600082015250565b600061200b601f83611fc4565b915061201682611fd5565b602082019050919050565b6000602082019050818103600083015261203a81611ffe565b9050919050565b7f5072696365206d757374206265206174206c6561737420312077656900000000600082015250565b6000612077601c83611fc4565b915061208282612041565b602082019050919050565b600060208201905081810360008301526120a68161206a565b9050919050565b7f466565206d75737420626520657175616c20746f206c697374696e6720666565600082015250565b60006120e3602083611fc4565b91506120ee826120ad565b602082019050919050565b60006020820190508181036000830152612112816120d6565b9050919050565b60008151905061212881611e58565b92915050565b60006020828403121561214457612143611e53565b5b600061215284828501612119565b91505092915050565b7f4e4654206d75737420626520617070726f76656420746f206d61726b65740000600082015250565b6000612191601e83611fc4565b915061219c8261215b565b602082019050919050565b600060208201905081810360008301526121c081612184565b9050919050565b6121d081611c67565b82525050565b6121df81611cff565b82525050565b60006080820190506121fa60008301876121c7565b61220760208301866121c7565b6122146040830185611f2d565b61222160608301846121d6565b95945050505050565b7f6964206d757374203c3d206974656d20636f756e740000000000000000000000600082015250565b6000612260601583611fc4565b915061226b8261222a565b602082019050919050565b6000602082019050818103600083015261228f81612253565b9050919050565b7f6974656d206d757374206265206f6e206d61726b657400000000000000000000600082015250565b60006122cc601683611fc4565b91506122d782612296565b602082019050919050565b600060208201905081810360008301526122fb816122bf565b9050919050565b7f6d75737420626520746865206f776e6572000000000000000000000000000000600082015250565b6000612338601183611fc4565b915061234382612302565b602082019050919050565b600060208201905081810360008301526123678161232b565b9050919050565b6000819050919050565b600061239361238e61238984611c47565b61236e565b611c47565b9050919050565b60006123a582612378565b9050919050565b60006123b78261239a565b9050919050565b6123c7816123ac565b82525050565b60006080820190506123e260008301876123be565b6123ef60208301866121c7565b6123fc6040830185611f2d565b61240960608301846121d6565b95945050505050565b6000819050919050565b600061243761243261242d84612412565b61236e565b611c2e565b9050919050565b6124478161241c565b82525050565b600060808201905061246260008301876123be565b61246f60208301866121c7565b61247c604083018561243e565b61248960608301846121d6565b95945050505050565b7f506c65617365207375626d6974207468652061736b696e672070726963650000600082015250565b60006124c8601e83611fc4565b91506124d382612492565b602082019050919050565b600060208201905081810360008301526124f7816124bb565b9050919050565b600060608201905061251360008301866123be565b61252060208301856121c7565b61252d6040830184611f2d565b949350505050565b7f4e487b7100000000000000000000000000000000000000000000000000000000600052601160045260246000fd5b600061256f82611c2e565b91507fffffffffffffffffffffffffffffffffffffffffffffffffffffffffffffffff82036125a1576125a0612535565b5b600182019050919050565b7f4e487b7100000000000000000000000000000000000000000000000000000000600052604160045260246000fd5b7f4e487b7100000000000000000000000000000000000000000000000000000000600052603260045260246000fdfea26469706673582212208a488d107e68ef9befe327ad57b51a202c92d92486171511ca228f66d796235d64736f6c63430008110033",
  "linkReferences": {},
  "deployedLinkReferences": {}
}